{
  "abi": [
    {
      "inputs": [
        {
          "internalType": "bytes32[]",
          "name": "choices",
          "type": "bytes32[]"
        }
      ],
      "stateMutability": "nonpayable",
      "type": "constructor"
    },
    {
      "inputs": [
        {
          "internalType": "uint256",
          "name": "",
          "type": "uint256"
        }
      ],
      "name": "choiceList",
      "outputs": [
        {
          "internalType": "bytes32",
          "name": "",
          "type": "bytes32"
        }
      ],
      "stateMutability": "view",
      "type": "function"
    },
    {
      "inputs": [
        {
          "internalType": "bytes32",
          "name": "choice",
          "type": "bytes32"
        }
      ],
      "name": "totalVotesFor",
      "outputs": [
        {
          "internalType": "uint256",
          "name": "",
          "type": "uint256"
        }
      ],
      "stateMutability": "view",
      "type": "function"
    },
    {
      "inputs": [
        {
          "internalType": "bytes32",
          "name": "choice",
          "type": "bytes32"
        }
      ],
      "name": "validChoice",
      "outputs": [
        {
          "internalType": "bool",
          "name": "",
          "type": "bool"
        }
      ],
      "stateMutability": "view",
      "type": "function"
    },
    {
      "inputs": [
        {
          "internalType": "bytes32",
          "name": "choice",
          "type": "bytes32"
        }
      ],
      "name": "voteForChoice",
      "outputs": [],
      "stateMutability": "nonpayable",
      "type": "function"
    },
    {
      "inputs": [
        {
          "internalType": "bytes32",
          "name": "",
          "type": "bytes32"
        }
      ],
      "name": "votesReceived",
      "outputs": [
        {
          "internalType": "uint256",
          "name": "",
          "type": "uint256"
        }
      ],
      "stateMutability": "view",
      "type": "function"
    }
  ],
  "bytecode": {
    "object": "0x608060405234801561001057600080fd5b506040516103fb3803806103fb83398101604081905261002f916100bf565b8051610042906001906020840190610049565b505061017c565b828054828255906000526020600020908101928215610084579160200282015b82811115610084578251825591602001919060010190610069565b50610090929150610094565b5090565b5b808211156100905760008155600101610095565b634e487b7160e01b600052604160045260246000fd5b600060208083850312156100d257600080fd5b82516001600160401b03808211156100e957600080fd5b818501915085601f8301126100fd57600080fd5b81518181111561010f5761010f6100a9565b8060051b604051601f19603f83011681018181108582111715610134576101346100a9565b60405291825284820192508381018501918883111561015257600080fd5b938501935b8285101561017057845184529385019392850192610157565b98975050505050505050565b6102708061018b6000396000f3fe608060405234801561001057600080fd5b50600436106100575760003560e01c80632f265cf71461005c578063684908bd146100825780637021939f14610095578063bbadf363146100b5578063d723178a146100d8575b600080fd5b61006f61006a3660046101c4565b6100ed565b6040519081526020015b60405180910390f35b61006f6100903660046101c4565b610114565b61006f6100a33660046101c4565b60006020819052908152604090205481565b6100c86100c33660046101c4565b610135565b6040519015158152602001610079565b6100eb6100e63660046101c4565b61018b565b005b60006100f882610135565b61010157600080fd5b5060009081526020819052604090205490565b6001818154811061012457600080fd5b600091825260209091200154905081565b6000805b600154811015610182578260018281548110610157576101576101dd565b9060005260206000200154036101705750600192915050565b8061017a81610209565b915050610139565b50600092915050565b61019481610135565b61019d57600080fd5b60008181526020819052604081208054600192906101bc908490610222565b909155505050565b6000602082840312156101d657600080fd5b5035919050565b634e487b7160e01b600052603260045260246000fd5b634e487b7160e01b600052601160045260246000fd5b60006001820161021b5761021b6101f3565b5060010190565b60008219821115610235576102356101f3565b50019056fea2646970667358221220d6cab7f888bf94b8c2c7a18cab8ce603d0a29f145429263204f05c0a16bbe4e064736f6c634300080d0033",
    "linkReferences": {}
  }
}