{
  "abi": [
    {
      "inputs": [
        {
          "internalType": "uint256",
          "name": "block_number",
          "type": "uint256"
        }
      ],
      "name": "calculateBlockResults",
      "outputs": [
        {
          "internalType": "string",
          "name": "",
          "type": "string"
        }
      ],
      "stateMutability": "view",
      "type": "function"
    },
    {
      "inputs": [
        {
          "internalType": "string",
          "name": "choice",
          "type": "string"
        },
        {
          "internalType": "string",
          "name": "persona",
          "type": "string"
        },
        {
          "internalType": "uint256",
          "name": "block_number",
          "type": "uint256"
        }
      ],
      "name": "castVote",
      "outputs": [],
      "stateMutability": "payable",
      "type": "function"
    },
    {
      "inputs": [
        {
          "internalType": "uint256",
          "name": "",
          "type": "uint256"
        }
      ],
      "name": "choiceList",
      "outputs": [
        {
          "internalType": "string",
          "name": "",
          "type": "string"
        }
      ],
      "stateMutability": "view",
      "type": "function"
    },
    {
      "inputs": [
        {
          "internalType": "string",
          "name": "s1",
          "type": "string"
        },
        {
          "internalType": "string",
          "name": "s2",
          "type": "string"
        }
      ],
      "name": "compareStringsbyBytes",
      "outputs": [
        {
          "internalType": "bool",
          "name": "",
          "type": "bool"
        }
      ],
      "stateMutability": "pure",
      "type": "function"
    },
    {
      "inputs": [
        {
          "internalType": "uint256",
          "name": "range",
          "type": "uint256"
        },
        {
          "internalType": "uint256",
          "name": "block_number",
          "type": "uint256"
        }
      ],
      "name": "historyForRange",
      "outputs": [
        {
          "components": [
            {
              "internalType": "string",
              "name": "result",
              "type": "string"
            },
            {
              "components": [
                {
                  "internalType": "uint256",
                  "name": "votes",
                  "type": "uint256"
                },
                {
                  "components": [
                    {
                      "internalType": "string",
                      "name": "persona",
                      "type": "string"
                    },
                    {
                      "internalType": "address",
                      "name": "sender",
                      "type": "address"
                    }
                  ],
                  "internalType": "struct BlockPaperScissors.Vote[]",
                  "name": "voters",
                  "type": "tuple[]"
                }
              ],
              "internalType": "struct BlockPaperScissors.Votes",
              "name": "blockVotes",
              "type": "tuple"
            },
            {
              "components": [
                {
                  "internalType": "uint256",
                  "name": "votes",
                  "type": "uint256"
                },
                {
                  "components": [
                    {
                      "internalType": "string",
                      "name": "persona",
                      "type": "string"
                    },
                    {
                      "internalType": "address",
                      "name": "sender",
                      "type": "address"
                    }
                  ],
                  "internalType": "struct BlockPaperScissors.Vote[]",
                  "name": "voters",
                  "type": "tuple[]"
                }
              ],
              "internalType": "struct BlockPaperScissors.Votes",
              "name": "paperVotes",
              "type": "tuple"
            },
            {
              "components": [
                {
                  "internalType": "uint256",
                  "name": "votes",
                  "type": "uint256"
                },
                {
                  "components": [
                    {
                      "internalType": "string",
                      "name": "persona",
                      "type": "string"
                    },
                    {
                      "internalType": "address",
                      "name": "sender",
                      "type": "address"
                    }
                  ],
                  "internalType": "struct BlockPaperScissors.Vote[]",
                  "name": "voters",
                  "type": "tuple[]"
                }
              ],
              "internalType": "struct BlockPaperScissors.Votes",
              "name": "scissorsVotes",
              "type": "tuple"
            }
          ],
          "internalType": "struct BlockPaperScissors.VotesWithResultsInBlock[]",
          "name": "",
          "type": "tuple[]"
        }
      ],
      "stateMutability": "view",
      "type": "function"
    },
    {
      "inputs": [
        {
          "internalType": "uint256",
          "name": "",
          "type": "uint256"
        }
      ],
      "name": "personaList",
      "outputs": [
        {
          "internalType": "string",
          "name": "",
          "type": "string"
        }
      ],
      "stateMutability": "view",
      "type": "function"
    },
    {
      "inputs": [
        {
          "internalType": "uint256",
          "name": "block_number",
          "type": "uint256"
        }
      ],
      "name": "totalVotesForBlock",
      "outputs": [
        {
          "components": [
            {
              "components": [
                {
                  "internalType": "uint256",
                  "name": "votes",
                  "type": "uint256"
                },
                {
                  "components": [
                    {
                      "internalType": "string",
                      "name": "persona",
                      "type": "string"
                    },
                    {
                      "internalType": "address",
                      "name": "sender",
                      "type": "address"
                    }
                  ],
                  "internalType": "struct BlockPaperScissors.Vote[]",
                  "name": "voters",
                  "type": "tuple[]"
                }
              ],
              "internalType": "struct BlockPaperScissors.Votes",
              "name": "blockVotes",
              "type": "tuple"
            },
            {
              "components": [
                {
                  "internalType": "uint256",
                  "name": "votes",
                  "type": "uint256"
                },
                {
                  "components": [
                    {
                      "internalType": "string",
                      "name": "persona",
                      "type": "string"
                    },
                    {
                      "internalType": "address",
                      "name": "sender",
                      "type": "address"
                    }
                  ],
                  "internalType": "struct BlockPaperScissors.Vote[]",
                  "name": "voters",
                  "type": "tuple[]"
                }
              ],
              "internalType": "struct BlockPaperScissors.Votes",
              "name": "paperVotes",
              "type": "tuple"
            },
            {
              "components": [
                {
                  "internalType": "uint256",
                  "name": "votes",
                  "type": "uint256"
                },
                {
                  "components": [
                    {
                      "internalType": "string",
                      "name": "persona",
                      "type": "string"
                    },
                    {
                      "internalType": "address",
                      "name": "sender",
                      "type": "address"
                    }
                  ],
                  "internalType": "struct BlockPaperScissors.Vote[]",
                  "name": "voters",
                  "type": "tuple[]"
                }
              ],
              "internalType": "struct BlockPaperScissors.Votes",
              "name": "scissorsVotes",
              "type": "tuple"
            }
          ],
          "internalType": "struct BlockPaperScissors.VotesInBlock",
          "name": "",
          "type": "tuple"
        }
      ],
      "stateMutability": "view",
      "type": "function"
    },
    {
      "inputs": [
        {
          "internalType": "string",
          "name": "choice",
          "type": "string"
        },
        {
          "internalType": "uint256",
          "name": "block_number",
          "type": "uint256"
        }
      ],
      "name": "totalVotesForChoice",
      "outputs": [
        {
          "components": [
            {
              "internalType": "uint256",
              "name": "votes",
              "type": "uint256"
            },
            {
              "components": [
                {
                  "internalType": "string",
                  "name": "persona",
                  "type": "string"
                },
                {
                  "internalType": "address",
                  "name": "sender",
                  "type": "address"
                }
              ],
              "internalType": "struct BlockPaperScissors.Vote[]",
              "name": "voters",
              "type": "tuple[]"
            }
          ],
          "internalType": "struct BlockPaperScissors.Votes",
          "name": "",
          "type": "tuple"
        }
      ],
      "stateMutability": "view",
      "type": "function"
    },
    {
      "inputs": [
        {
          "internalType": "string",
          "name": "choice",
          "type": "string"
        }
      ],
      "name": "validChoice",
      "outputs": [
        {
          "internalType": "bool",
          "name": "",
          "type": "bool"
        }
      ],
      "stateMutability": "view",
      "type": "function"
    },
    {
      "inputs": [
        {
          "internalType": "string",
          "name": "persona",
          "type": "string"
        }
      ],
      "name": "validPersona",
      "outputs": [
        {
          "internalType": "bool",
          "name": "",
          "type": "bool"
        }
      ],
      "stateMutability": "view",
      "type": "function"
    },
    {
      "inputs": [
        {
          "internalType": "string",
          "name": "choice",
          "type": "string"
        },
        {
          "internalType": "uint256",
          "name": "block_number",
          "type": "uint256"
        }
      ],
      "name": "validVoter",
      "outputs": [
        {
          "internalType": "bool",
          "name": "",
          "type": "bool"
        }
      ],
      "stateMutability": "view",
      "type": "function"
    },
    {
      "inputs": [
        {
          "internalType": "uint256",
          "name": "",
          "type": "uint256"
        },
        {
          "internalType": "string",
          "name": "",
          "type": "string"
        }
      ],
      "name": "votesPerBlock",
      "outputs": [
        {
          "internalType": "uint256",
          "name": "votes",
          "type": "uint256"
        }
      ],
      "stateMutability": "view",
      "type": "function"
    }
  ],
  "bytecode": {
    "object": "0x600560e081815264626c6f636b60d81b610100526080908152610120918252643830b832b960d91b6101405260a0919091526101a060405260086101609081526773636973736f727360c01b6101805260c0526200006290600290600362000104565b50604051806060016040528060405180604001604052806007815260200166313ab4b63232b960c91b81525081526020016040518060400160405280600a81526020016939b832b1bab630ba37b960b11b815250815260200160405180604001604052806006815260200165185c9d1a5cdd60d21b8152508152506005906003620000ef92919062000104565b50348015620000fd57600080fd5b506200029c565b826003810192821562000149579160200282015b82811115620001495782518051620001389184916020909101906200015b565b509160200191906001019062000118565b5062000157929150620001e6565b5090565b828054620001699062000260565b90600052602060002090601f0160209004810192826200018d5760008555620001d8565b82601f10620001a857805160ff1916838001178555620001d8565b82800160010185558215620001d8579182015b82811115620001d8578251825591602001919060010190620001bb565b506200015792915062000207565b8082111562000157576000620001fd82826200021e565b50600101620001e6565b5b8082111562000157576000815560010162000208565b5080546200022c9062000260565b6000825580601f106200023d575050565b601f0160209004906000526020600020908101906200025d919062000207565b50565b600181811c908216806200027557607f821691505b6020821081036200029657634e487b7160e01b600052602260045260246000fd5b50919050565b6117ab80620002ac6000396000f3fe6080604052600436106100a75760003560e01c806391e706ea1161006457806391e706ea146101d65780639a0652d6146101f6578063b0ca23ea14610216578063ca8ac8f714610243578063dcaad32f14610270578063e9a734ff1461028557600080fd5b8063331a897d146100ac5780633b895867146100e2578063684908bd1461010f5780636b906d441461012f578063715139651461018657806391cadabe146101a6575b600080fd5b3480156100b857600080fd5b506100cc6100c736600461110a565b6102a5565b6040516100d9919061117f565b60405180910390f35b3480156100ee57600080fd5b506101026100fd3660046111db565b610496565b6040516100d991906112b4565b34801561011b57600080fd5b506100cc61012a36600461110a565b61060e565b34801561013b57600080fd5b5061017861014a36600461136a565b6001602090815260009283526040909220815180830184018051928152908401929093019190912091525481565b6040519081526020016100d9565b34801561019257600080fd5b506100cc6101a136600461110a565b6106ae565b3480156101b257600080fd5b506101c66101c13660046113b1565b6106be565b60405190151581526020016100d9565b3480156101e257600080fd5b506101c66101f13660046111db565b6107d4565b34801561020257600080fd5b506101c66102113660046113b1565b61089e565b34801561022257600080fd5b506102366102313660046113f3565b6108e2565b6040516100d99190611415565b34801561024f57600080fd5b5061026361025e36600461110a565b610a27565b6040516100d991906114d1565b61028361027e366004611532565b610e1b565b005b34801561029157600080fd5b506101c66102a03660046115a6565b610f7f565b60008181526001602052604081206060918291600282016040516102c99190611650565b9081526020016040518091039020600001549050600060016000868152602001908152602001600020600260016003811061030657610306611600565b016040516103149190611650565b9081526040805160209281900383018120546000898152600190945291832091935061034290600490611650565b908152604051908190036020019020549050818311801561036257508083115b156103fd57600260005b01805461037890611616565b80601f01602080910402602001604051908101604052809291908181526020018280546103a490611616565b80156103f15780601f106103c6576101008083540402835291602001916103f1565b820191906000526020600020905b8154815290600101906020018083116103d457829003601f168201915b5050505050935061048c565b828211801561040b57508082115b15610419576002600161036c565b828111801561042757508181115b156104345760028061036c565b8183148061044157508083145b8061044b57508082145b1561047957604051806040016040528060098152602001687374616c656d61746560b81b815250935061048c565b6040518060200160405280600081525093505b5091949350505050565b6040805180820190915260008152606060208201526104b584846106be565b6104be57600080fd5b6000828152600160205260409081902090516104dd90869086906116eb565b90815260200160405180910390206040518060400160405290816000820154815260200160018201805480602002602001604051908101604052809291908181526020016000905b828210156105fc578382906000526020600020906002020160405180604001604052908160008201805461055890611616565b80601f016020809104026020016040519081016040528092919081815260200182805461058490611616565b80156105d15780601f106105a6576101008083540402835291602001916105d1565b820191906000526020600020905b8154815290600101906020018083116105b457829003601f168201915b50505091835250506001918201546001600160a01b0316602091820152918352929092019101610525565b505050508152505090505b9392505050565b6002816003811061061e57600080fd5b01805490915061062d90611616565b80601f016020809104026020016040519081016040528092919081815260200182805461065990611616565b80156106a65780601f1061067b576101008083540402835291602001916106a6565b820191906000526020600020905b81548152906001019060200180831161068957829003601f168201915b505050505081565b6005816003811061061e57600080fd5b6000805b60038110156107c8576107a7600282600381106106e1576106e1611600565b0180546106ed90611616565b80601f016020809104026020016040519081016040528092919081815260200182805461071990611616565b80156107665780601f1061073b57610100808354040283529160200191610766565b820191906000526020600020905b81548152906001019060200180831161074957829003601f168201915b505050505085858080601f016020809104026020016040519081016040528093929190818152602001838380828437600092019190915250610f7f92505050565b156107b65760019150506107ce565b806107c081611711565b9150506106c2565b50600090505b92915050565b6000805b6000838152600160205260409081902090516107f790879087906116eb565b908152604051908190036020019020600101548110156108935760008381526001602052604090819020905133919061083390889088906116eb565b9081526020016040518091039020600101828154811061085557610855611600565b60009182526020909120600160029092020101546001600160a01b031603610881576000915050610607565b8061088b81611711565b9150506107d8565b506001949350505050565b6000805b60038110156107c8576108c1600582600381106106e1576106e1611600565b156108d05760019150506107ce565b806108da81611711565b9150506108a2565b606060006108f184600161172a565b67ffffffffffffffff811115610909576109096112c7565b60405190808252806020026020018201604052801561094257816020015b61092f610fd8565b8152602001906001900390816109275790505b50905060005b848111610a1f57600061095e61025e8387611742565b9050610968610fd8565b8151602080830191909152820151604080830191909152820151606082015260006109966100c78589611742565b905060006109b360016109a9878b611742565b6100c79190611742565b90506109bf8282610f7f565b156109e6576040805180820190915260048152636472617760e01b602082015283526109ea565b8183525b828686815181106109fd576109fd611600565b6020026020010181905250505050508080610a1790611711565b915050610948565b509392505050565b610a2f611050565b610a37611050565b600083815260016020526040812090600201604051610a569190611650565b90815260200160405180910390206040518060400160405290816000820154815260200160018201805480602002602001604051908101604052809291908181526020016000905b82821015610b755783829060005260206000209060020201604051806040016040529081600082018054610ad190611616565b80601f0160208091040260200160405190810160405280929190818152602001828054610afd90611616565b8015610b4a5780601f10610b1f57610100808354040283529160200191610b4a565b820191906000526020600020905b815481529060010190602001808311610b2d57829003601f168201915b50505091835250506001918201546001600160a01b0316602091820152918352929092019101610a9e565b505050915250508152600083815260016020526040908190209051610b9c90600390611650565b90815260200160405180910390206040518060400160405290816000820154815260200160018201805480602002602001604051908101604052809291908181526020016000905b82821015610cbb5783829060005260206000209060020201604051806040016040529081600082018054610c1790611616565b80601f0160208091040260200160405190810160405280929190818152602001828054610c4390611616565b8015610c905780601f10610c6557610100808354040283529160200191610c90565b820191906000526020600020905b815481529060010190602001808311610c7357829003601f168201915b50505091835250506001918201546001600160a01b0316602091820152918352929092019101610be4565b50505091525050602080830191909152600084815260019091526040902060028001604051610cea9190611650565b90815260200160405180910390206040518060400160405290816000820154815260200160018201805480602002602001604051908101604052809291908181526020016000905b82821015610e095783829060005260206000209060020201604051806040016040529081600082018054610d6590611616565b80601f0160208091040260200160405190810160405280929190818152602001828054610d9190611616565b8015610dde5780601f10610db357610100808354040283529160200191610dde565b820191906000526020600020905b815481529060010190602001808311610dc157829003601f168201915b50505091835250506001918201546001600160a01b0316602091820152918352929092019101610d32565b50505091525050604082015292915050565b4360005414610e2957436000555b610e3385856106be565b610e3c57600080fd5b610e46838361089e565b610e4f57600080fd5b610e5a8585836107d4565b610e6357600080fd5b60018060008381526020019081526020016000208686604051610e879291906116eb565b90815260200160405180910390206000016000828254610ea7919061172a565b9091555050600081815260016020526040908190209051610ecb90879087906116eb565b9081526020016040518091039020600101604051806040016040528085858080601f016020809104026020016040519081016040528093929190818152602001838380828437600092018290525093855250503360209384015250835460018101855593815281902082518051939460020290910192610f4e9284920190611071565b5060209190910151600190910180546001600160a01b0319166001600160a01b039092169190911790555050505050565b600081604051602001610f929190611759565b6040516020818303038152906040528051906020012083604051602001610fb99190611759565b6040516020818303038152906040528051906020012014905092915050565b604051806080016040528060608152602001611007604051806040016040528060008152602001606081525090565b8152602001611029604051806040016040528060008152602001606081525090565b815260200161104b604051806040016040528060008152602001606081525090565b905290565b6040805160a081019091526000606080830191825260808301528190611007565b82805461107d90611616565b90600052602060002090601f01602090048101928261109f57600085556110e5565b82601f106110b857805160ff19168380011785556110e5565b828001600101855582156110e5579182015b828111156110e55782518255916020019190600101906110ca565b506110f19291506110f5565b5090565b5b808211156110f157600081556001016110f6565b60006020828403121561111c57600080fd5b5035919050565b60005b8381101561113e578181015183820152602001611126565b8381111561114d576000848401525b50505050565b6000815180845261116b816020860160208601611123565b601f01601f19169290920160200192915050565b6020815260006106076020830184611153565b60008083601f8401126111a457600080fd5b50813567ffffffffffffffff8111156111bc57600080fd5b6020830191508360208285010111156111d457600080fd5b9250929050565b6000806000604084860312156111f057600080fd5b833567ffffffffffffffff81111561120757600080fd5b61121386828701611192565b909790965060209590950135949350505050565b6000604080840183518552602080850151838288015282815180855260608901915060608160051b8a01019450838301925060005b818110156112a657898603605f190183528351805188885261128089890182611153565b918701516001600160a01b0316978701979097529550928401929184019160010161125c565b509398975050505050505050565b6020815260006106076020830184611227565b634e487b7160e01b600052604160045260246000fd5b600082601f8301126112ee57600080fd5b813567ffffffffffffffff80821115611309576113096112c7565b604051601f8301601f19908116603f01168101908282118183101715611331576113316112c7565b8160405283815286602085880101111561134a57600080fd5b836020870160208301376000602085830101528094505050505092915050565b6000806040838503121561137d57600080fd5b82359150602083013567ffffffffffffffff81111561139b57600080fd5b6113a7858286016112dd565b9150509250929050565b600080602083850312156113c457600080fd5b823567ffffffffffffffff8111156113db57600080fd5b6113e785828601611192565b90969095509350505050565b6000806040838503121561140657600080fd5b50508035926020909101359150565b60006020808301818452808551808352604092508286019150828160051b87010184880160005b838110156114c357603f1989840301855281516080815181865261146282870182611153565b915050888201518582038a87015261147a8282611227565b91505087820151858203898701526114928282611227565b915050606080830151925085820381870152506114af8183611227565b96890196945050509086019060010161143c565b509098975050505050505050565b6020815260008251606060208401526114ed6080840182611227565b90506020840151601f198085840301604086015261150b8383611227565b92506040860151915080858403016060860152506115298282611227565b95945050505050565b60008060008060006060868803121561154a57600080fd5b853567ffffffffffffffff8082111561156257600080fd5b61156e89838a01611192565b9097509550602088013591508082111561158757600080fd5b5061159488828901611192565b96999598509660400135949350505050565b600080604083850312156115b957600080fd5b823567ffffffffffffffff808211156115d157600080fd5b6115dd868387016112dd565b935060208501359150808211156115f357600080fd5b506113a7858286016112dd565b634e487b7160e01b600052603260045260246000fd5b600181811c9082168061162a57607f821691505b60208210810361164a57634e487b7160e01b600052602260045260246000fd5b50919050565b600080835481600182811c91508083168061166c57607f831692505b6020808410820361168b57634e487b7160e01b86526022600452602486fd5b81801561169f57600181146116b0576116dd565b60ff198616895284890196506116dd565b60008a81526020902060005b868110156116d55781548b8201529085019083016116bc565b505084890196505b509498975050505050505050565b8183823760009101908152919050565b634e487b7160e01b600052601160045260246000fd5b600060018201611723576117236116fb565b5060010190565b6000821982111561173d5761173d6116fb565b500190565b600082821015611754576117546116fb565b500390565b6000825161176b818460208701611123565b919091019291505056fea2646970667358221220a368e3dde58a858795e190c641e4185c1a6a525828e31a4776f92505aa12cf1e64736f6c634300080d0033",
    "linkReferences": {}
  },
  "methodIdentifiers": {
    "calculateBlockResults(uint256)": "331a897d",
    "castVote(string,string,uint256)": "dcaad32f",
    "choiceList(uint256)": "684908bd",
    "compareStringsbyBytes(string,string)": "e9a734ff",
    "historyForRange(uint256,uint256)": "b0ca23ea",
    "personaList(uint256)": "71513965",
    "totalVotesForBlock(uint256)": "ca8ac8f7",
    "totalVotesForChoice(string,uint256)": "3b895867",
    "validChoice(string)": "91cadabe",
    "validPersona(string)": "9a0652d6",
    "validVoter(string,uint256)": "91e706ea",
    "votesPerBlock(uint256,string)": "6b906d44"
  },
  "id": 1
}