{
  "abi": [
    {
      "inputs": [],
      "name": "aliceChoice",
      "outputs": [
        {
          "internalType": "enum rps.Choice",
          "name": "",
          "type": "uint8"
        }
      ],
      "stateMutability": "view",
      "type": "function"
    },
    {
      "inputs": [
        {
          "internalType": "address",
          "name": "",
          "type": "address"
        }
      ],
      "name": "balances",
      "outputs": [
        {
          "internalType": "uint256",
          "name": "",
          "type": "uint256"
        }
      ],
      "stateMutability": "view",
      "type": "function"
    },
    {
      "inputs": [],
      "name": "bobChoice",
      "outputs": [
        {
          "internalType": "enum rps.Choice",
          "name": "",
          "type": "uint8"
        }
      ],
      "stateMutability": "view",
      "type": "function"
    },
    {
      "inputs": [],
      "name": "claimMoney",
      "outputs": [],
      "stateMutability": "nonpayable",
      "type": "function"
    },
    {
      "inputs": [
        {
          "internalType": "bytes32",
          "name": "hash",
          "type": "bytes32"
        }
      ],
      "name": "commitChoice",
      "outputs": [],
      "stateMutability": "payable",
      "type": "function"
    },
    {
      "inputs": [],
      "name": "findResult",
      "outputs": [],
      "stateMutability": "nonpayable",
      "type": "function"
    },
    {
      "inputs": [],
      "name": "refundDeposit",
      "outputs": [],
      "stateMutability": "nonpayable",
      "type": "function"
    },
    {
      "inputs": [],
      "name": "resetAll",
      "outputs": [],
      "stateMutability": "nonpayable",
      "type": "function"
    },
    {
      "inputs": [
        {
          "internalType": "enum rps.Choice",
          "name": "choice",
          "type": "uint8"
        },
        {
          "internalType": "uint256",
          "name": "nonce",
          "type": "uint256"
        }
      ],
      "name": "revealChoice",
      "outputs": [],
      "stateMutability": "nonpayable",
      "type": "function"
    },
    {
      "inputs": [],
      "name": "startBlock",
      "outputs": [
        {
          "internalType": "uint256",
          "name": "",
          "type": "uint256"
        }
      ],
      "stateMutability": "view",
      "type": "function"
    }
  ],
  "bytecode": {
    "object": "0x6080604052436000556003805462ffffff1916905534801561002057600080fd5b50610f58806100306000396000f3fe6080604052600436106100915760003560e01c80637e66cd56116100595780637e66cd561461014e578063db618f851461016d578063e05b10c014610182578063e103aef514610195578063efc5eb8f146101aa57600080fd5b80630c0b568d1461009657806315da3ad9146100b857806327e235e3146100e857806348cd4cb1146101235780636658e52b14610139575b600080fd5b3480156100a257600080fd5b506100b66100b1366004610d53565b6101bf565b005b3480156100c457600080fd5b506003546100d29060ff1681565b6040516100df9190610d99565b60405180910390f35b3480156100f457600080fd5b50610115610103366004610dc1565b60046020526000908152604090205481565b6040519081526020016100df565b34801561012f57600080fd5b5061011560005481565b34801561014557600080fd5b506100b6610466565b34801561015a57600080fd5b506003546100d290610100900460ff1681565b34801561017957600080fd5b506100b6610520565b6100b6610190366004610df1565b6108d8565b3480156101a157600080fd5b506100b66109d6565b3480156101b657600080fd5b506100b6610a07565b6000546101cd906064610e0a565b43101580156101e857506000546101e59060c8610e0a565b43105b6101f157600080fd5b33735b38da6a701c568545dcfcb03fcb875f56beddc4148061022657503373ab8483f64d9c6d1ecf9b849ae677dd3315835cb2145b61024b5760405162461bcd60e51b815260040161024290610e30565b60405180910390fd5b6001541580159061025d575060025415155b6102a95760405162461bcd60e51b815260206004820152601b60248201527f736f6d656f6e6520646964206e6f74207375626d6974206861736800000000006044820152606401610242565b60008260038111156102bd576102bd610d83565b036103145760405162461bcd60e51b815260206004820152602160248201527f6861766520746f2063686f6f736520526f636b2f50617065722f53636973736f6044820152603960f91b6064820152608401610242565b735b38da6a701c568545dcfcb03fcb875f56beddc31933016103cf5760028282604051602001610345929190610e5a565b60408051601f198184030181529082905261035f91610e8e565b602060405180830381855afa15801561037c573d6000803e3d6000fd5b5050506040513d601f19601f8201168201806040525081019061039f9190610ec9565b600154036103cb576003805483919060ff1916600183838111156103c5576103c5610d83565b02179055505b5050565b600282826040516020016103e4929190610e5a565b60408051601f19818403018152908290526103fe91610e8e565b602060405180830381855afa15801561041b573d6000803e3d6000fd5b5050506040513d601f19601f8201168201806040525081019061043e9190610ec9565b600254036103cb576003805483919061ff00191661010083838111156103c5576103c5610d83565b33735b38da6a701c568545dcfcb03fcb875f56beddc4148061049b57503373ab8483f64d9c6d1ecf9b849ae677dd3315835cb2145b6104b75760405162461bcd60e51b815260040161024290610e30565b336000908152600460205260409020546104d057600080fd5b33600081815260046020526040808220805490839055905190929083156108fc0290849084818181858888f1945050505081151560011490506103cb575033600090815260046020526040902055565b60005461052e9060c8610e0a565b431161053957600080fd5b60035462010000900460ff16156105925760405162461bcd60e51b815260206004820152601c60248201527f63616e206f6e6c7920636f6d7075746520726573756c74206f6e6365000000006044820152606401610242565b60006003805460ff16908111156105ab576105ab610d83565b141580156105d55750600060038054610100900460ff16908111156105d2576105d2610d83565b14155b61062d5760405162461bcd60e51b815260206004820152602360248201527f736f6d656f6e6520646964206e6f742072657665616c2074686569722063686f60448201526269636560e81b6064820152608401610242565b60038054610100900460ff169081111561064957610649610d83565b6003805460ff169081111561066057610660610d83565b0361070157735b38da6a701c568545dcfcb03fcb875f56beddc460009081526004602052600080516020610f038339815191528054670de0b6b3a764000092906106ab908490610e0a565b909155505073ab8483f64d9c6d1ecf9b849ae677dd3315835cb260009081526004602052600080516020610ee38339815191528054670de0b6b3a764000092906106f6908490610e0a565b909155506108c59050565b60016003805460ff169081111561071a5761071a610d83565b036107cf5760025b60038054610100900460ff169081111561073e5761073e610d83565b036107895773ab8483f64d9c6d1ecf9b849ae677dd3315835cb260009081526004602052600080516020610ee38339815191528054671bc16d674ec8000092906106f6908490610e0a565b735b38da6a701c568545dcfcb03fcb875f56beddc460009081526004602052600080516020610f038339815191528054671bc16d674ec8000092906106f6908490610e0a565b60026003805460ff16908111156107e8576107e8610d83565b036107f4576003610722565b6003805460ff168181111561080b5761080b610d83565b036108c557600160038054610100900460ff169081111561082e5761082e610d83565b036108795773ab8483f64d9c6d1ecf9b849ae677dd3315835cb260009081526004602052600080516020610ee38339815191528054671bc16d674ec8000092906106f6908490610e0a565b735b38da6a701c568545dcfcb03fcb875f56beddc460009081526004602052600080516020610f038339815191528054671bc16d674ec8000092906108bf908490610e0a565b90915550505b6003805462ff0000191662010000179055565b6000546108e6906064610e0a565b43106108f157600080fd5b33735b38da6a701c568545dcfcb03fcb875f56beddc41480156109145750600154155b8061093d57503373ab8483f64d9c6d1ecf9b849ae677dd3315835cb214801561093d5750600254155b6109595760405162461bcd60e51b815260040161024290610e30565b34670de0b6b3a7640000146109b05760405162461bcd60e51b815260206004820152601960248201527f706c656173652070617920746f207061727469636970617465000000000000006044820152606401610242565b735b38da6a701c568545dcfcb03fcb875f56beddc31933016109d157600155565b600255565b60035462010000900460ff166109eb57600080fd5b43600090815560018190556002556003805462ffffff19169055565b60008054610a16906064610e0a565b4310158015610a2f57506001541580610a2f5750600254155b90506000805460c8610a419190610e0a565b4310158015610a8b575060006003805460ff1690811115610a6457610a64610d83565b1480610a8b5750600060038054610100900460ff1690811115610a8957610a89610d83565b145b90508180610a965750805b610a9f57600080fd5b670de0b6b3a7640000471015610ab457600080fd5b600054610ac29060c8610e0a565b4310610c7e5760006003805460ff1690811115610ae157610ae1610d83565b148015610b0a5750600060038054610100900460ff1690811115610b0757610b07610d83565b14155b15610b605773ab8483f64d9c6d1ecf9b849ae677dd3315835cb260009081526004602052600080516020610ee38339815191528054671bc16d674ec800009290610b55908490610e0a565b909155506103cb9050565b60006003805460ff1690811115610b7957610b79610d83565b14158015610ba25750600060038054610100900460ff1690811115610ba057610ba0610d83565b145b15610bed57735b38da6a701c568545dcfcb03fcb875f56beddc460009081526004602052600080516020610f038339815191528054671bc16d674ec800009290610b55908490610e0a565b735b38da6a701c568545dcfcb03fcb875f56beddc460009081526004602052600080516020610f038339815191528054670de0b6b3a76400009290610c33908490610e0a565b909155505073ab8483f64d9c6d1ecf9b849ae677dd3315835cb260009081526004602052600080516020610ee38339815191528054670de0b6b3a76400009290610b55908490610e0a565b600054610c8c906064610e0a565b43106103cb57600154158015610ca3575060025415155b15610cee5773ab8483f64d9c6d1ecf9b849ae677dd3315835cb260009081526004602052600080516020610ee38339815191528054670de0b6b3a76400009290610b55908490610e0a565b60015415801590610cff5750600254155b156103cb57735b38da6a701c568545dcfcb03fcb875f56beddc460009081526004602052600080516020610f038339815191528054670de0b6b3a76400009290610d4a908490610e0a565b90915550505050565b60008060408385031215610d6657600080fd5b823560048110610d7557600080fd5b946020939093013593505050565b634e487b7160e01b600052602160045260246000fd5b6020810160048310610dbb57634e487b7160e01b600052602160045260246000fd5b91905290565b600060208284031215610dd357600080fd5b81356001600160a01b0381168114610dea57600080fd5b9392505050565b600060208284031215610e0357600080fd5b5035919050565b60008219821115610e2b57634e487b7160e01b600052601160045260246000fd5b500190565b60208082526010908201526f3737ba1020b634b1b29037b9102137b160811b604082015260600190565b600060048410610e7a57634e487b7160e01b600052602160045260246000fd5b5060f89290921b8252600182015260210190565b6000825160005b81811015610eaf5760208186018101518583015201610e95565b81811115610ebe576000828501525b509190910192915050565b600060208284031215610edb57600080fd5b505191905056fe02e472438281ece9fae629c31ebc952b0b512971efb1bacfc7d4441c586cff6cb4f48062ab731bd4efe92c4648605f116b647045df55efb4b4d0600c3ba41587a2646970667358221220ebcc2ffdeb551af7d9af72e16ea49917cb08ac156645278d4a86e566a402a95d64736f6c634300080d0033",
    "linkReferences": {}
  }
}