{
  "abi": [
    {
      "inputs": [
        {
          "internalType": "address",
          "name": "",
          "type": "address"
        }
      ],
      "name": "accountStates",
      "outputs": [
        {
          "internalType": "bool",
          "name": "accountExists",
          "type": "bool"
        },
        {
          "internalType": "uint256",
          "name": "blockHeightOfLastMove",
          "type": "uint256"
        },
        {
          "internalType": "string",
          "name": "lastMove",
          "type": "string"
        },
        {
          "internalType": "uint256",
          "name": "movesMade",
          "type": "uint256"
        }
      ],
      "stateMutability": "view",
      "type": "function"
    },
    {
      "inputs": [],
      "name": "allAccountStates",
      "outputs": [
        {
          "components": [
            {
              "internalType": "bool",
              "name": "accountExists",
              "type": "bool"
            },
            {
              "internalType": "uint256",
              "name": "blockHeightOfLastMove",
              "type": "uint256"
            },
            {
              "internalType": "string",
              "name": "lastMove",
              "type": "string"
            },
            {
              "internalType": "uint256",
              "name": "movesMade",
              "type": "uint256"
            }
          ],
          "internalType": "struct BlockPaperScissors.AccountState[]",
          "name": "",
          "type": "tuple[]"
        }
      ],
      "stateMutability": "view",
      "type": "function"
    },
    {
      "inputs": [
        {
          "internalType": "uint256",
          "name": "blockHeight",
          "type": "uint256"
        }
      ],
      "name": "calculateBlockResults",
      "outputs": [
        {
          "internalType": "string",
          "name": "",
          "type": "string"
        }
      ],
      "stateMutability": "view",
      "type": "function"
    },
    {
      "inputs": [
        {
          "internalType": "string",
          "name": "choice",
          "type": "string"
        },
        {
          "internalType": "uint256",
          "name": "blockHeight",
          "type": "uint256"
        }
      ],
      "name": "castVote",
      "outputs": [],
      "stateMutability": "payable",
      "type": "function"
    },
    {
      "inputs": [
        {
          "internalType": "uint256",
          "name": "",
          "type": "uint256"
        }
      ],
      "name": "choiceList",
      "outputs": [
        {
          "internalType": "string",
          "name": "",
          "type": "string"
        }
      ],
      "stateMutability": "view",
      "type": "function"
    },
    {
      "inputs": [
        {
          "internalType": "string",
          "name": "s1",
          "type": "string"
        },
        {
          "internalType": "string",
          "name": "s2",
          "type": "string"
        }
      ],
      "name": "compareStringsbyBytes",
      "outputs": [
        {
          "internalType": "bool",
          "name": "",
          "type": "bool"
        }
      ],
      "stateMutability": "pure",
      "type": "function"
    },
    {
      "inputs": [
        {
          "internalType": "uint256",
          "name": "range",
          "type": "uint256"
        },
        {
          "internalType": "uint256",
          "name": "blockHeight",
          "type": "uint256"
        }
      ],
      "name": "historyForRange",
      "outputs": [
        {
          "components": [
            {
              "internalType": "string",
              "name": "result",
              "type": "string"
            },
            {
              "internalType": "uint256",
              "name": "blockHeight",
              "type": "uint256"
            },
            {
              "components": [
                {
                  "internalType": "uint256",
                  "name": "votes",
                  "type": "uint256"
                },
                {
                  "internalType": "address[]",
                  "name": "voters",
                  "type": "address[]"
                }
              ],
              "internalType": "struct BlockPaperScissors.Votes",
              "name": "blockVotes",
              "type": "tuple"
            },
            {
              "components": [
                {
                  "internalType": "uint256",
                  "name": "votes",
                  "type": "uint256"
                },
                {
                  "internalType": "address[]",
                  "name": "voters",
                  "type": "address[]"
                }
              ],
              "internalType": "struct BlockPaperScissors.Votes",
              "name": "paperVotes",
              "type": "tuple"
            },
            {
              "components": [
                {
                  "internalType": "uint256",
                  "name": "votes",
                  "type": "uint256"
                },
                {
                  "internalType": "address[]",
                  "name": "voters",
                  "type": "address[]"
                }
              ],
              "internalType": "struct BlockPaperScissors.Votes",
              "name": "scissorsVotes",
              "type": "tuple"
            }
          ],
          "internalType": "struct BlockPaperScissors.VotesWithResultsInBlock[]",
          "name": "",
          "type": "tuple[]"
        }
      ],
      "stateMutability": "view",
      "type": "function"
    },
    {
      "inputs": [],
      "name": "singleAccountState",
      "outputs": [
        {
          "components": [
            {
              "internalType": "bool",
              "name": "accountExists",
              "type": "bool"
            },
            {
              "internalType": "uint256",
              "name": "blockHeightOfLastMove",
              "type": "uint256"
            },
            {
              "internalType": "string",
              "name": "lastMove",
              "type": "string"
            },
            {
              "internalType": "uint256",
              "name": "movesMade",
              "type": "uint256"
            }
          ],
          "internalType": "struct BlockPaperScissors.AccountState",
          "name": "",
          "type": "tuple"
        }
      ],
      "stateMutability": "view",
      "type": "function"
    },
    {
      "inputs": [
        {
          "internalType": "uint256",
          "name": "blockHeight",
          "type": "uint256"
        }
      ],
      "name": "totalVotesForBlock",
      "outputs": [
        {
          "components": [
            {
              "components": [
                {
                  "internalType": "uint256",
                  "name": "votes",
                  "type": "uint256"
                },
                {
                  "internalType": "address[]",
                  "name": "voters",
                  "type": "address[]"
                }
              ],
              "internalType": "struct BlockPaperScissors.Votes",
              "name": "blockVotes",
              "type": "tuple"
            },
            {
              "components": [
                {
                  "internalType": "uint256",
                  "name": "votes",
                  "type": "uint256"
                },
                {
                  "internalType": "address[]",
                  "name": "voters",
                  "type": "address[]"
                }
              ],
              "internalType": "struct BlockPaperScissors.Votes",
              "name": "paperVotes",
              "type": "tuple"
            },
            {
              "components": [
                {
                  "internalType": "uint256",
                  "name": "votes",
                  "type": "uint256"
                },
                {
                  "internalType": "address[]",
                  "name": "voters",
                  "type": "address[]"
                }
              ],
              "internalType": "struct BlockPaperScissors.Votes",
              "name": "scissorsVotes",
              "type": "tuple"
            }
          ],
          "internalType": "struct BlockPaperScissors.VotesInBlock",
          "name": "",
          "type": "tuple"
        }
      ],
      "stateMutability": "view",
      "type": "function"
    },
    {
      "inputs": [
        {
          "internalType": "string",
          "name": "choice",
          "type": "string"
        },
        {
          "internalType": "uint256",
          "name": "blockHeight",
          "type": "uint256"
        }
      ],
      "name": "totalVotesForChoice",
      "outputs": [
        {
          "components": [
            {
              "internalType": "uint256",
              "name": "votes",
              "type": "uint256"
            },
            {
              "internalType": "address[]",
              "name": "voters",
              "type": "address[]"
            }
          ],
          "internalType": "struct BlockPaperScissors.Votes",
          "name": "",
          "type": "tuple"
        }
      ],
      "stateMutability": "view",
      "type": "function"
    },
    {
      "inputs": [
        {
          "internalType": "string",
          "name": "choice",
          "type": "string"
        }
      ],
      "name": "validChoice",
      "outputs": [
        {
          "internalType": "bool",
          "name": "",
          "type": "bool"
        }
      ],
      "stateMutability": "view",
      "type": "function"
    },
    {
      "inputs": [
        {
          "internalType": "string",
          "name": "choice",
          "type": "string"
        },
        {
          "internalType": "uint256",
          "name": "blockHeight",
          "type": "uint256"
        }
      ],
      "name": "validVoter",
      "outputs": [
        {
          "internalType": "bool",
          "name": "",
          "type": "bool"
        }
      ],
      "stateMutability": "view",
      "type": "function"
    },
    {
      "inputs": [
        {
          "internalType": "uint256",
          "name": "",
          "type": "uint256"
        },
        {
          "internalType": "string",
          "name": "",
          "type": "string"
        }
      ],
      "name": "votesPerBlock",
      "outputs": [
        {
          "internalType": "uint256",
          "name": "votes",
          "type": "uint256"
        }
      ],
      "stateMutability": "view",
      "type": "function"
    }
  ],
  "bytecode": {
    "object": "0x600560e081815264626c6f636b60d81b610100526080908152610120918252643830b832b960d91b6101405260a0919091526101a060405260086101609081526773636973736f727360c01b6101805260c0526200006290600490600362000077565b503480156200007057600080fd5b506200020f565b8260038101928215620000bc579160200282015b82811115620000bc5782518051620000ab918491602090910190620000ce565b50916020019190600101906200008b565b50620000ca92915062000159565b5090565b828054620000dc90620001d3565b90600052602060002090601f0160209004810192826200010057600085556200014b565b82601f106200011b57805160ff19168380011785556200014b565b828001600101855582156200014b579182015b828111156200014b5782518255916020019190600101906200012e565b50620000ca9291506200017a565b80821115620000ca57600062000170828262000191565b5060010162000159565b5b80821115620000ca57600081556001016200017b565b5080546200019f90620001d3565b6000825580601f10620001b0575050565b601f016020900490600052602060002090810190620001d091906200017a565b50565b600181811c90821680620001e857607f821691505b6020821081036200020957634e487b7160e01b600052602260045260246000fd5b50919050565b611a2f806200021f6000396000f3fe6080604052600436106100c25760003560e01c806391e706ea1161007f578063c0b57ffb11610059578063c0b57ffb14610262578063ca8ac8f714610292578063e3b9e2fa146102bf578063e9a734ff146102d457600080fd5b806391e706ea146101f3578063a59039e314610213578063b0ca23ea1461023557600080fd5b8063331a897d146100c75780633b895867146100fd57806362901b971461012a578063684908bd1461014c5780636b906d441461016c57806391cadabe146101c3575b600080fd5b3480156100d357600080fd5b506100e76100e236600461131b565b6102f4565b6040516100f49190611390565b60405180910390f35b34801561010957600080fd5b5061011d6101183660046113ec565b610522565b6040516100f49190611498565b34801561013657600080fd5b5061013f6105f8565b6040516100f491906114ea565b34801561015857600080fd5b506100e761016736600461131b565b610723565b34801561017857600080fd5b506101b56101873660046115a0565b6001602090815260009283526040909220815180830184018051928152908401929093019190912091525481565b6040519081526020016100f4565b3480156101cf57600080fd5b506101e36101de3660046115e7565b6107c3565b60405190151581526020016100f4565b3480156101ff57600080fd5b506101e361020e3660046113ec565b6108d9565b34801561021f57600080fd5b5061022861099b565b6040516100f49190611629565b34801561024157600080fd5b5061025561025036600461168b565b610b78565b6040516100f491906116ad565b34801561026e57600080fd5b5061028261027d366004611774565b610d35565b6040516100f4949392919061179d565b34801561029e57600080fd5b506102b26102ad36600461131b565b610dea565b6040516100f491906117cf565b6102d26102cd3660046113ec565b610fff565b005b3480156102e057600080fd5b506101e36102ef366004611830565b611189565b600081815260016020526040812060609182916004820160405161031891906118d4565b908152602001604051809103902060000154905060006001600086815260200190815260200160002060046001600381106103555761035561188a565b0160405161036391906118d4565b90815260408051602092819003830181205460008981526001909452918320919350610391906006906118d4565b90815260405190819003602001902054905081831180156103b157508083115b1561044c57600460005b0180546103c7906118a0565b80601f01602080910402602001604051908101604052809291908181526020018280546103f3906118a0565b80156104405780601f1061041557610100808354040283529160200191610440565b820191906000526020600020905b81548152906001019060200180831161042357829003601f168201915b50505050509350610518565b828211801561045a57508082115b1561046857600460016103bb565b828111801561047657508181115b1561048457600460026103bb565b828114801561049257508181145b156104c057604051806040016040528060098152602001687374616c656d61746560b81b8152509350610518565b818314806104cd57508083145b806104d757508082145b1561050557604051806040016040528060098152602001687374616c656d61746560b81b8152509350610518565b6040518060200160405280600081525093505b5091949350505050565b60408051808201909152600081526060602082015261054184846107c3565b61054a57600080fd5b600082815260016020526040908190209051610569908690869061196f565b908152602001604051809103902060405180604001604052908160008201548152602001600182018054806020026020016040519081016040528092919081815260200182805480156105e557602002820191906000526020600020905b81546001600160a01b031681526001909101906020018083116105c7575b50505050508152505090505b9392505050565b61062560405180608001604052806000151581526020016000815260200160608152602001600081525090565b61065260405180608001604052806000151581526020016000815260200160608152602001600081525090565b33600081815260036020818152604083206001810154868301529390925290526002018054610680906118a0565b80601f01602080910402602001604051908101604052809291908181526020018280546106ac906118a0565b80156106f95780601f106106ce576101008083540402835291602001916106f9565b820191906000526020600020905b8154815290600101906020018083116106dc57829003601f168201915b50505050604080840192909252503360009081526003602081905291902001546060820152919050565b6004816003811061073357600080fd5b018054909150610742906118a0565b80601f016020809104026020016040519081016040528092919081815260200182805461076e906118a0565b80156107bb5780601f10610790576101008083540402835291602001916107bb565b820191906000526020600020905b81548152906001019060200180831161079e57829003601f168201915b505050505081565b6000805b60038110156108cd576108ac600482600381106107e6576107e661188a565b0180546107f2906118a0565b80601f016020809104026020016040519081016040528092919081815260200182805461081e906118a0565b801561086b5780601f106108405761010080835404028352916020019161086b565b820191906000526020600020905b81548152906001019060200180831161084e57829003601f168201915b505050505085858080601f01602080910402602001604051908101604052809392919081815260200183838082843760009201919091525061118992505050565b156108bb5760019150506108d3565b806108c581611995565b9150506107c7565b50600090505b92915050565b6000805b6000838152600160205260409081902090516108fc908790879061196f565b9081526040519081900360200190206001015481101561099057600083815260016020526040908190209051339190610938908890889061196f565b9081526020016040518091039020600101828154811061095a5761095a61188a565b6000918252602090912001546001600160a01b03160361097e5760009150506105f1565b8061098881611995565b9150506108dd565b506001949350505050565b60608060005b600254811015610b72576109d860405180608001604052806000151581526020016000815260200160608152602001600081525090565b6001815260028054600391600091859081106109f6576109f661188a565b60009182526020808320909101546001600160a01b031683528281019390935260409091018120600101549183019190915260028054600392919085908110610a4157610a4161188a565b60009182526020808320909101546001600160a01b0316835282019290925260400190206002018054610a73906118a0565b80601f0160208091040260200160405190810160405280929190818152602001828054610a9f906118a0565b8015610aec5780601f10610ac157610100808354040283529160200191610aec565b820191906000526020600020905b815481529060010190602001808311610acf57829003601f168201915b505050505081604001819052506003600060028481548110610b1057610b1061188a565b60009182526020808320909101546001600160a01b03168352820192909252604001902060030154606082015282518190849084908110610b5357610b5361188a565b6020026020010181905250508080610b6a90611995565b9150506109a1565b50919050565b60606000610b878460016119ae565b67ffffffffffffffff811115610b9f57610b9f6114fd565b604051908082528060200260200182016040528015610bd857816020015b610bc56111e2565b815260200190600190039081610bbd5790505b50905060005b848111610d2d576000610bf46102ad83876119c6565b9050610bfe6111e2565b81516040808301919091526020830151606083015282015160808201526000610c2a6100e285896119c6565b90506000610c476001610c3d878b6119c6565b6100e291906119c6565b9050610c538282611189565b8015610c875750610c8582604051806040016040528060098152602001687374616c656d61746560b81b815250611189565b155b8015610cbb5750610cb981604051806040016040528060098152602001687374616c656d61746560b81b815250611189565b155b15610ce2576040805180820190915260048152636472617760e01b60208201528352610ce6565b8183525b610cf085896119c6565b602084015285518390879087908110610d0b57610d0b61188a565b6020026020010181905250505050508080610d2590611995565b915050610bde565b509392505050565b60036020526000908152604090208054600182015460028301805460ff909316939192610d61906118a0565b80601f0160208091040260200160405190810160405280929190818152602001828054610d8d906118a0565b8015610dda5780601f10610daf57610100808354040283529160200191610dda565b820191906000526020600020905b815481529060010190602001808311610dbd57829003601f168201915b5050505050908060030154905084565b610df2611261565b610dfa611261565b600083815260016020526040812090600401604051610e1991906118d4565b90815260200160405180910390206040518060400160405290816000820154815260200160018201805480602002602001604051908101604052809291908181526020018280548015610e9557602002820191906000526020600020905b81546001600160a01b03168152600190910190602001808311610e77575b505050919092525050508152600083815260016020526040908190209051610ebf906005906118d4565b90815260200160405180910390206040518060400160405290816000820154815260200160018201805480602002602001604051908101604052809291908181526020018280548015610f3b57602002820191906000526020600020905b81546001600160a01b03168152600190910190602001808311610f1d575b5050509190925250505060208083019190915260008481526001909152604090206004600201604051610f6e91906118d4565b90815260200160405180910390206040518060400160405290816000820154815260200160018201805480602002602001604051908101604052809291908181526020018280548015610fea57602002820191906000526020600020905b81546001600160a01b03168152600190910190602001808311610fcc575b50505091909252505050604082015292915050565b436000541461100d57436000555b61101783836107c3565b61102057600080fd5b61102b8383836108d9565b61103457600080fd5b6001806000838152602001908152602001600020848460405161105892919061196f565b9081526020016040518091039020600001600082825461107891906119ae565b909155505060008181526001602052604090819020905161109c908590859061196f565b908152604080516020928190038301902060019081018054918201815560009081528381209091018054336001600160a01b031990911681179091558152600390925290205460ff1661112c57600280546001810182556000919091527f405787fa12a823e0f2b7631cc41b3ba8828b3321ca811111fa75cd3aa3bb5ace0180546001600160a01b031916331790555b336000908152600360205260409020805460ff191660019081178255810182905561115b906002018484611282565b5033600090815260036020819052604082200180546001929061117f9084906119ae565b9091555050505050565b60008160405160200161119c91906119dd565b60405160208183030381529060405280519060200120836040516020016111c391906119dd565b6040516020818303038152906040528051906020012014905092915050565b6040518060a001604052806060815260200160008152602001611218604051806040016040528060008152602001606081525090565b815260200161123a604051806040016040528060008152602001606081525090565b815260200161125c604051806040016040528060008152602001606081525090565b905290565b6040805160a081019091526000606080830191825260808301528190611218565b82805461128e906118a0565b90600052602060002090601f0160209004810192826112b057600085556112f6565b82601f106112c95782800160ff198235161785556112f6565b828001600101855582156112f6579182015b828111156112f65782358255916020019190600101906112db565b50611302929150611306565b5090565b5b808211156113025760008155600101611307565b60006020828403121561132d57600080fd5b5035919050565b60005b8381101561134f578181015183820152602001611337565b8381111561135e576000848401525b50505050565b6000815180845261137c816020860160208601611334565b601f01601f19169290920160200192915050565b6020815260006105f16020830184611364565b60008083601f8401126113b557600080fd5b50813567ffffffffffffffff8111156113cd57600080fd5b6020830191508360208285010111156113e557600080fd5b9250929050565b60008060006040848603121561140157600080fd5b833567ffffffffffffffff81111561141857600080fd5b611424868287016113a3565b909790965060209590950135949350505050565b600060408301825184526020808401516040828701528281518085526060880191508383019450600092505b8083101561148d5784516001600160a01b03168252938301936001929092019190830190611464565b509695505050505050565b6020815260006105f16020830184611438565b8051151582526020810151602083015260006040820151608060408501526114d66080850182611364565b606093840151949093019390935250919050565b6020815260006105f160208301846114ab565b634e487b7160e01b600052604160045260246000fd5b600082601f83011261152457600080fd5b813567ffffffffffffffff8082111561153f5761153f6114fd565b604051601f8301601f19908116603f01168101908282118183101715611567576115676114fd565b8160405283815286602085880101111561158057600080fd5b836020870160208301376000602085830101528094505050505092915050565b600080604083850312156115b357600080fd5b82359150602083013567ffffffffffffffff8111156115d157600080fd5b6115dd85828601611513565b9150509250929050565b600080602083850312156115fa57600080fd5b823567ffffffffffffffff81111561161157600080fd5b61161d858286016113a3565b90969095509350505050565b6000602080830181845280855180835260408601915060408160051b870101925083870160005b8281101561167e57603f1988860301845261166c8583516114ab565b94509285019290850190600101611650565b5092979650505050505050565b6000806040838503121561169e57600080fd5b50508035926020909101359150565b60006020808301818452808551808352604092508286019150828160051b87010184880160005b8381101561176657603f19898403018552815160a081518186526116fa82870182611364565b9150508882015189860152878201518582038987015261171a8282611438565b915050606080830151868303828801526117348382611438565b92505050608080830151925085820381870152506117528183611438565b9689019694505050908601906001016116d4565b509098975050505050505050565b60006020828403121561178657600080fd5b81356001600160a01b03811681146105f157600080fd5b84151581528360208201526080604082015260006117be6080830185611364565b905082606083015295945050505050565b6020815260008251606060208401526117eb6080840182611438565b90506020840151601f19808584030160408601526118098383611438565b92506040860151915080858403016060860152506118278282611438565b95945050505050565b6000806040838503121561184357600080fd5b823567ffffffffffffffff8082111561185b57600080fd5b61186786838701611513565b9350602085013591508082111561187d57600080fd5b506115dd85828601611513565b634e487b7160e01b600052603260045260246000fd5b600181811c908216806118b457607f821691505b602082108103610b7257634e487b7160e01b600052602260045260246000fd5b600080835481600182811c9150808316806118f057607f831692505b6020808410820361190f57634e487b7160e01b86526022600452602486fd5b818015611923576001811461193457611961565b60ff19861689528489019650611961565b60008a81526020902060005b868110156119595781548b820152908501908301611940565b505084890196505b509498975050505050505050565b8183823760009101908152919050565b634e487b7160e01b600052601160045260246000fd5b6000600182016119a7576119a761197f565b5060010190565b600082198211156119c1576119c161197f565b500190565b6000828210156119d8576119d861197f565b500390565b600082516119ef818460208701611334565b919091019291505056fea2646970667358221220a5d86ce1a2f0d75fd68074b6aa9337477c4a74eb365d70f33a6d5f53c8d7a58664736f6c634300080d0033",
    "linkReferences": {}
  },
  "methodIdentifiers": {
    "accountStates(address)": "c0b57ffb",
    "allAccountStates()": "a59039e3",
    "calculateBlockResults(uint256)": "331a897d",
    "castVote(string,uint256)": "e3b9e2fa",
    "choiceList(uint256)": "684908bd",
    "compareStringsbyBytes(string,string)": "e9a734ff",
    "historyForRange(uint256,uint256)": "b0ca23ea",
    "singleAccountState()": "62901b97",
    "totalVotesForBlock(uint256)": "ca8ac8f7",
    "totalVotesForChoice(string,uint256)": "3b895867",
    "validChoice(string)": "91cadabe",
    "validVoter(string,uint256)": "91e706ea",
    "votesPerBlock(uint256,string)": "6b906d44"
  },
  "id": 0
}