{
  "abi": [
    {
      "inputs": [
        {
          "internalType": "uint256",
          "name": "",
          "type": "uint256"
        }
      ],
      "name": "allUsers",
      "outputs": [
        {
          "internalType": "address",
          "name": "",
          "type": "address"
        }
      ],
      "stateMutability": "view",
      "type": "function"
    },
    {
      "inputs": [
        {
          "internalType": "uint256",
          "name": "",
          "type": "uint256"
        }
      ],
      "name": "blockResults",
      "outputs": [
        {
          "internalType": "uint256",
          "name": "blockHeight",
          "type": "uint256"
        },
        {
          "internalType": "enum BlockPaperScissors.Move",
          "name": "winningMove",
          "type": "uint8"
        },
        {
          "internalType": "uint256",
          "name": "blockVotes",
          "type": "uint256"
        },
        {
          "internalType": "uint256",
          "name": "paperVotes",
          "type": "uint256"
        },
        {
          "internalType": "uint256",
          "name": "scissorsVotes",
          "type": "uint256"
        },
        {
          "internalType": "bool",
          "name": "isStalemate",
          "type": "bool"
        },
        {
          "internalType": "bool",
          "name": "isDraw",
          "type": "bool"
        },
        {
          "internalType": "enum BlockPaperScissors.Move",
          "name": "previousWinningMove",
          "type": "uint8"
        }
      ],
      "stateMutability": "view",
      "type": "function"
    },
    {
      "inputs": [
        {
          "internalType": "enum BlockPaperScissors.Move",
          "name": "move",
          "type": "uint8"
        },
        {
          "internalType": "uint256",
          "name": "blockHeight",
          "type": "uint256"
        }
      ],
      "name": "castVote",
      "outputs": [],
      "stateMutability": "nonpayable",
      "type": "function"
    },
    {
      "inputs": [],
      "name": "getAllStreaks",
      "outputs": [
        {
          "components": [
            {
              "internalType": "uint256",
              "name": "startBlockHeight",
              "type": "uint256"
            },
            {
              "internalType": "uint256",
              "name": "endBlockHeight",
              "type": "uint256"
            },
            {
              "internalType": "uint256",
              "name": "length",
              "type": "uint256"
            },
            {
              "internalType": "enum BlockPaperScissors.Move",
              "name": "lastWinningMove",
              "type": "uint8"
            }
          ],
          "internalType": "struct BlockPaperScissors.Streak[]",
          "name": "",
          "type": "tuple[]"
        }
      ],
      "stateMutability": "view",
      "type": "function"
    },
    {
      "inputs": [],
      "name": "getAllUsers",
      "outputs": [
        {
          "components": [
            {
              "internalType": "address",
              "name": "accountAddress",
              "type": "address"
            },
            {
              "internalType": "enum BlockPaperScissors.Move",
              "name": "lastMove",
              "type": "uint8"
            },
            {
              "internalType": "uint256",
              "name": "totalMoves",
              "type": "uint256"
            },
            {
              "internalType": "uint256",
              "name": "lastMoveBlockHeight",
              "type": "uint256"
            }
          ],
          "internalType": "struct BlockPaperScissors.User[]",
          "name": "",
          "type": "tuple[]"
        }
      ],
      "stateMutability": "view",
      "type": "function"
    },
    {
      "inputs": [
        {
          "internalType": "uint256",
          "name": "count",
          "type": "uint256"
        }
      ],
      "name": "getResultsOfPreviousBlocks",
      "outputs": [
        {
          "components": [
            {
              "internalType": "uint256",
              "name": "blockHeight",
              "type": "uint256"
            },
            {
              "internalType": "enum BlockPaperScissors.Move",
              "name": "winningMove",
              "type": "uint8"
            },
            {
              "internalType": "uint256",
              "name": "blockVotes",
              "type": "uint256"
            },
            {
              "internalType": "uint256",
              "name": "paperVotes",
              "type": "uint256"
            },
            {
              "internalType": "uint256",
              "name": "scissorsVotes",
              "type": "uint256"
            },
            {
              "internalType": "address[]",
              "name": "blockVoters",
              "type": "address[]"
            },
            {
              "internalType": "address[]",
              "name": "paperVoters",
              "type": "address[]"
            },
            {
              "internalType": "address[]",
              "name": "scissorsVoters",
              "type": "address[]"
            },
            {
              "internalType": "bool",
              "name": "isStalemate",
              "type": "bool"
            },
            {
              "internalType": "bool",
              "name": "isDraw",
              "type": "bool"
            },
            {
              "internalType": "enum BlockPaperScissors.Move",
              "name": "previousWinningMove",
              "type": "uint8"
            }
          ],
          "internalType": "struct BlockPaperScissors.BlockResult[]",
          "name": "",
          "type": "tuple[]"
        }
      ],
      "stateMutability": "view",
      "type": "function"
    },
    {
      "inputs": [
        {
          "internalType": "uint256",
          "name": "count",
          "type": "uint256"
        }
      ],
      "name": "getTopStreaks",
      "outputs": [
        {
          "components": [
            {
              "internalType": "uint256",
              "name": "startBlockHeight",
              "type": "uint256"
            },
            {
              "internalType": "uint256",
              "name": "endBlockHeight",
              "type": "uint256"
            },
            {
              "internalType": "uint256",
              "name": "length",
              "type": "uint256"
            },
            {
              "internalType": "enum BlockPaperScissors.Move",
              "name": "lastWinningMove",
              "type": "uint8"
            }
          ],
          "internalType": "struct BlockPaperScissors.Streak[]",
          "name": "",
          "type": "tuple[]"
        }
      ],
      "stateMutability": "view",
      "type": "function"
    },
    {
      "inputs": [
        {
          "internalType": "address",
          "name": "userAddress",
          "type": "address"
        }
      ],
      "name": "getUserByAddress",
      "outputs": [
        {
          "components": [
            {
              "internalType": "address",
              "name": "accountAddress",
              "type": "address"
            },
            {
              "internalType": "enum BlockPaperScissors.Move",
              "name": "lastMove",
              "type": "uint8"
            },
            {
              "internalType": "uint256",
              "name": "totalMoves",
              "type": "uint256"
            },
            {
              "internalType": "uint256",
              "name": "lastMoveBlockHeight",
              "type": "uint256"
            }
          ],
          "internalType": "struct BlockPaperScissors.User",
          "name": "",
          "type": "tuple"
        }
      ],
      "stateMutability": "view",
      "type": "function"
    },
    {
      "inputs": [],
      "name": "lastWinningMove",
      "outputs": [
        {
          "internalType": "enum BlockPaperScissors.Move",
          "name": "",
          "type": "uint8"
        }
      ],
      "stateMutability": "view",
      "type": "function"
    },
    {
      "inputs": [],
      "name": "lastWinningMoveBlockHeight",
      "outputs": [
        {
          "internalType": "uint256",
          "name": "",
          "type": "uint256"
        }
      ],
      "stateMutability": "view",
      "type": "function"
    },
    {
      "inputs": [
        {
          "internalType": "address",
          "name": "",
          "type": "address"
        }
      ],
      "name": "users",
      "outputs": [
        {
          "internalType": "address",
          "name": "accountAddress",
          "type": "address"
        },
        {
          "internalType": "enum BlockPaperScissors.Move",
          "name": "lastMove",
          "type": "uint8"
        },
        {
          "internalType": "uint256",
          "name": "totalMoves",
          "type": "uint256"
        },
        {
          "internalType": "uint256",
          "name": "lastMoveBlockHeight",
          "type": "uint256"
        }
      ],
      "stateMutability": "view",
      "type": "function"
    },
    {
      "inputs": [
        {
          "internalType": "uint256",
          "name": "",
          "type": "uint256"
        }
      ],
      "name": "winningStreaks",
      "outputs": [
        {
          "internalType": "uint256",
          "name": "startBlockHeight",
          "type": "uint256"
        },
        {
          "internalType": "uint256",
          "name": "endBlockHeight",
          "type": "uint256"
        },
        {
          "internalType": "uint256",
          "name": "length",
          "type": "uint256"
        },
        {
          "internalType": "enum BlockPaperScissors.Move",
          "name": "lastWinningMove",
          "type": "uint8"
        }
      ],
      "stateMutability": "view",
      "type": "function"
    }
  ],
  "bytecode": {
    "object": "0x608060405234801561001057600080fd5b50611c50806100206000396000f3fe608060405234801561001057600080fd5b50600436106100b45760003560e01c8063a356f9e411610071578063a356f9e4146101d6578063a87430ba146101ed578063d464d60d14610242578063d8c8ec5e1461025c578063e2842d791461026f578063f9135be91461028457600080fd5b80630888d514146100b95780632465170b1461013357806369c212f61461015357806373a6a35b1461017357806375f61f1914610196578063a2bdedf4146101ab575b600080fd5b6101166100c73660046117c1565b600060208190529081526040902080546001820154600283015460038401546004850154600890950154939460ff93841694929391929091818116916101008104821691620100009091041688565b60405161012a989796959493929190611812565b60405180910390f35b6101466101413660046117c1565b610299565b60405161012a91906118a7565b6101666101613660046119c0565b61059d565b60405161012a9190611a26565b6101866101813660046117c1565b610646565b60405161012a9493929190611a3a565b61019e610683565b60405161012a9190611a65565b6101be6101b93660046117c1565b610739565b6040516001600160a01b03909116815260200161012a565b6101df60045481565b60405190815260200161012a565b6102326101fb3660046119c0565b60016020819052600091825260409091208054918101546002909101546001600160a01b03831692600160a01b900460ff16919084565b60405161012a9493929190611ad5565b60055461024f9060ff1681565b60405161012a9190611b04565b61019e61026a3660046117c1565b610763565b610277610aa6565b60405161012a9190611b12565b610297610292366004611b60565b610c06565b005b60606004548211156103005760405162461bcd60e51b815260206004820152602560248201527f436f756e74206578636565647320617661696c61626c6520626c6f636b20726560448201526473756c747360d81b60648201526084015b60405180910390fd5b60008267ffffffffffffffff81111561031b5761031b611b90565b60405190808252806020026020018201604052801561035457816020015b6103416116a5565b8152602001906001900390816103395790505b50905060005b8381101561059657600080826004546103739190611bbc565b815260200190815260200160002060405180610160016040529081600082015481526020016001820160009054906101000a900460ff1660048111156103bb576103bb6117da565b60048111156103cc576103cc6117da565b81526020016002820154815260200160038201548152602001600482015481526020016005820180548060200260200160405190810160405280929190818152602001828054801561044757602002820191906000526020600020905b81546001600160a01b03168152600190910190602001808311610429575b50505050508152602001600682018054806020026020016040519081016040528092919081815260200182805480156104a957602002820191906000526020600020905b81546001600160a01b0316815260019091019060200180831161048b575b505050505081526020016007820180548060200260200160405190810160405280929190818152602001828054801561050b57602002820191906000526020600020905b81546001600160a01b031681526001909101906020018083116104ed575b5050509183525050600882015460ff80821615156020840152610100820481161515604084015260609092019162010000909104166004811115610551576105516117da565b6004811115610562576105626117da565b8152505082828151811061057857610578611bd3565b6020026020010181905250808061058e90611be9565b91505061035a565b5092915050565b6105c9604080516080810190915260008082526020820190815260200160008152602001600081525090565b6001600160a01b0382811660009081526001602090815260409182902082516080810190935280549384168352919290830190600160a01b900460ff166004811115610617576106176117da565b6004811115610628576106286117da565b81526001820154602082015260029091015460409091015292915050565b6002818154811061065657600080fd5b60009182526020909120600490910201805460018201546002830154600390930154919350919060ff1684565b60606002805480602002602001604051908101604052809291908181526020016000905b8282101561073057838290600052602060002090600402016040518060800160405290816000820154815260200160018201548152602001600282015481526020016003820160009054906101000a900460ff16600481111561070c5761070c6117da565b600481111561071d5761071d6117da565b81525050815260200190600101906106a7565b50505050905090565b6003818154811061074957600080fd5b6000918252602090912001546001600160a01b0316905081565b6060600082116107a55760405162461bcd60e51b815260206004820152600d60248201526c125b9d985b1a590818dbdd5b9d609a1b60448201526064016102f7565b60025460009083116107b757826107bb565b6002545b905060006002805480602002602001604051908101604052809291908181526020016000905b8282101561086a57838290600052602060002090600402016040518060800160405290816000820154815260200160018201548152602001600282015481526020016003820160009054906101000a900460ff166004811115610846576108466117da565b6004811115610857576108576117da565b81525050815260200190600101906107e1565b50505050905060005b61087e600184611bbc565b811015610987576000610892826001611c02565b90505b8381101561097457600282815481106108b0576108b0611bd3565b906000526020600020906004020160020154600282815481106108d5576108d5611bd3565b906000526020600020906004020160020154111561096257600083838151811061090157610901611bd3565b6020026020010151905083828151811061091d5761091d611bd3565b602002602001015184848151811061093757610937611bd3565b60200260200101819052508084838151811061095557610955611bd3565b6020026020010181905250505b8061096c81611be9565b915050610895565b508061097f81611be9565b915050610873565b5060008267ffffffffffffffff8111156109a3576109a3611b90565b6040519080825280602002602001820160405280156109dc57816020015b6109c9611714565b8152602001906001900390816109c15790505b50905060005b83811015610a9d57600281815481106109fd576109fd611bd3565b90600052602060002090600402016040518060800160405290816000820154815260200160018201548152602001600282015481526020016003820160009054906101000a900460ff166004811115610a5857610a586117da565b6004811115610a6957610a696117da565b81525050828281518110610a7f57610a7f611bd3565b60200260200101819052508080610a9590611be9565b9150506109e2565b50949350505050565b60035460609060009067ffffffffffffffff811115610ac757610ac7611b90565b604051908082528060200260200182016040528015610b2457816020015b610b11604080516080810190915260008082526020820190815260200160008152602001600081525090565b815260200190600190039081610ae55790505b50905060005b600354811015610c00576001600060038381548110610b4b57610b4b611bd3565b60009182526020808320909101546001600160a01b0390811684528382019490945260409283019091208251608081019093528054938416835291929083019060ff600160a01b909104166004811115610ba757610ba76117da565b6004811115610bb857610bb86117da565b815260200160018201548152602001600282015481525050828281518110610be257610be2611bd3565b60200260200101819052508080610bf890611be9565b915050610b2a565b50919050565b6000826004811115610c1a57610c1a6117da565b10158015610c3a57506002826004811115610c3757610c376117da565b11155b610c755760405162461bcd60e51b815260206004820152600c60248201526b496e76616c6964206d6f766560a01b60448201526064016102f7565b43811115610cbc5760405162461bcd60e51b8152602060048201526014602482015273125b9d985b1a5908189b1bd8dac81a195a59da1d60621b60448201526064016102f7565b336000908152600160208190526040822090810154909103610d1b57600380546001810182556000919091527fc2575a0e9e593c00f959f8c92f12db2869c3395a3b0502d05e2516446f71f85b0180546001600160a01b031916331790555b60018101541580610d2f5750818160020154105b15610d4c5780546001600160a01b03191633178155600281018290555b80548390829060ff60a01b1916600160a01b836004811115610d7057610d706117da565b0217905550600181018054906000610d8783611be9565b9190505550610d9582610d9a565b505050565b60008060008060038054905067ffffffffffffffff811115610dbe57610dbe611b90565b604051908082528060200260200182016040528015610de7578160200160208202803683370190505b5060035490915060009067ffffffffffffffff811115610e0957610e09611b90565b604051908082528060200260200182016040528015610e32578160200160208202803683370190505b5060035490915060009067ffffffffffffffff811115610e5457610e54611b90565b604051908082528060200260200182016040528015610e7d578160200160208202803683370190505b50905060005b6003548110156110545760006001600060038481548110610ea657610ea6611bd3565b60009182526020808320909101546001600160a01b0390811684528382019490945260409283019091208251608081019093528054938416835291929083019060ff600160a01b909104166004811115610f0257610f026117da565b6004811115610f1357610f136117da565b81526020016001820154815260200160028201548152505090508881606001510361104157600081602001516004811115610f5057610f506117da565b03610f9e5787610f5f81611be9565b9850508060000151858381518110610f7957610f79611bd3565b60200260200101906001600160a01b031690816001600160a01b031681525050611041565b600181602001516004811115610fb657610fb66117da565b03610fdf5786610fc581611be9565b9750508060000151848381518110610f7957610f79611bd3565b600281602001516004811115610ff757610ff76117da565b03611041578561100681611be9565b965050806000015183838151811061102057611020611bd3565b60200260200101906001600160a01b031690816001600160a01b0316815250505b508061104c81611be9565b915050610e83565b50848611801561106357508386115b156110a75761107e8760008888888888886000806000611248565b600487905561108d6000611328565b600580546000919060ff19166001835b021790555061123f565b85851180156110b557508385115b156110f2576110d08760018888888888886000806001611248565b60048790556110df6001611328565b600580546001919060ff1916828061109d565b858411801561110057508484115b1561113e5761111b8760028888888888886000806002611248565b600487905561112a6002611328565b600580546002919060ff191660018361109d565b848614801561114c57508386115b1561117b5761117687600388888888888860016000600560009054906101000a900460ff16611248565b61123f565b838614801561118957508486115b156111b35761117687600388888888888860016000600560009054906101000a900460ff16611248565b83851480156111c157508585115b156111eb5761117687600388888888888860016000600560009054906101000a900460ff16611248565b84861480156111f957508386145b156112235761117687600388888888888860016000600560009054906101000a900460ff16611248565b60055461123f90889060ff168888888888886000600188611248565b50505050505050565b60008b81526020819052604090208b8155600180820180548d9260ff199091169083600481111561127b5761127b6117da565b0217905550600281018a9055600381018990556004810188905586516112aa90600583019060208a0190611747565b5085516112c09060068301906020890190611747565b5084516112d69060078301906020880190611747565b5060088101805461ffff191685151561ff00191617610100851515021780825583919062ff0000191662010000836004811115611315576113156117da565b0217905550505050505050505050505050565b60025460000361145257600060405180608001604052806004548152602001600454815260200160018152602001836004811115611368576113686117da565b90526002805460018181018355600092909252825160049182027f405787fa12a823e0f2b7631cc41b3ba8828b3321ca811111fa75cd3aa3bb5ace810191825560208501517f405787fa12a823e0f2b7631cc41b3ba8828b3321ca811111fa75cd3aa3bb5acf82015560408501517f405787fa12a823e0f2b7631cc41b3ba8828b3321ca811111fa75cd3aa3bb5ad082015560608501517f405787fa12a823e0f2b7631cc41b3ba8828b3321ca811111fa75cd3aa3bb5ad19091018054959650869592949193909260ff191691908490811115611447576114476117da565b021790555050505050565b600280546000919061146690600190611bbc565b8154811061147657611476611bd3565b6000918252602082206004909102019150826004811115611499576114996117da565b1480156114bc5750600260055460ff1660048111156114ba576114ba6117da565b145b806114f9575060018260048111156114d6576114d66117da565b1480156114f95750600060055460ff1660048111156114f7576114f76117da565b145b8061153657506002826004811115611513576115136117da565b1480156115365750600160055460ff166004811115611534576115346117da565b145b1561158457600454600182015560028101805490600061155583611be9565b909155505060038101805483919060ff1916600183600481111561157b5761157b6117da565b02179055505050565b6000604051806080016040528060045481526020016004548152602001600181526020018460048111156115ba576115ba6117da565b90526002805460018181018355600092909252825160049182027f405787fa12a823e0f2b7631cc41b3ba8828b3321ca811111fa75cd3aa3bb5ace810191825560208501517f405787fa12a823e0f2b7631cc41b3ba8828b3321ca811111fa75cd3aa3bb5acf82015560408501517f405787fa12a823e0f2b7631cc41b3ba8828b3321ca811111fa75cd3aa3bb5ad082015560608501517f405787fa12a823e0f2b7631cc41b3ba8828b3321ca811111fa75cd3aa3bb5ad19091018054959650869592949193909260ff191691908490811115611699576116996117da565b02179055505050505050565b6040805161016081019091526000808252602082019081526020016000815260200160008152602001600081526020016060815260200160608152602001606081526020016000151581526020016000151581526020016000600481111561170f5761170f6117da565b905290565b60405180608001604052806000815260200160008152602001600081526020016000600481111561170f5761170f6117da565b82805482825590600052602060002090810192821561179c579160200282015b8281111561179c57825182546001600160a01b0319166001600160a01b03909116178255602090920191600190910190611767565b506117a89291506117ac565b5090565b5b808211156117a857600081556001016117ad565b6000602082840312156117d357600080fd5b5035919050565b634e487b7160e01b600052602160045260246000fd5b6005811061180e57634e487b7160e01b600052602160045260246000fd5b9052565b8881526101008101611827602083018a6117f0565b87604083015286606083015285608083015284151560a083015283151560c083015261185660e08301846117f0565b9998505050505050505050565b600081518084526020808501945080840160005b8381101561189c5781516001600160a01b031687529582019590820190600101611877565b509495945050505050565b60006020808301818452808551808352604092508286019150828160051b87010184880160005b838110156119b257603f19898403018552815161016081518552888201516118f88a8701826117f0565b508188015185890152606080830151908601526080808301519086015260a08083015181870183905261192d83880182611863565b9250505060c080830151868303828801526119488382611863565b9250505060e080830151868303828801526119638382611863565b925050506101008083015161197b8288018215159052565b505061012082810151151590860152610140918201519161199e818701846117f0565b5095880195935050908601906001016118ce565b509098975050505050505050565b6000602082840312156119d257600080fd5b81356001600160a01b03811681146119e957600080fd5b9392505050565b80516001600160a01b0316825260208082015190611a10908401826117f0565b5060408181015190830152606090810151910152565b60808101611a3482846119f0565b92915050565b848152602081018490526040810183905260808101611a5c60608301846117f0565b95945050505050565b602080825282518282018190526000919060409081850190868401855b82811015611ac8578151805185528681015187860152858101518686015260609081015190611ab3818701836117f0565b50506080939093019290850190600101611a82565b5091979650505050505050565b6001600160a01b038516815260808101611af260208301866117f0565b60408201939093526060015292915050565b60208101611a3482846117f0565b6020808252825182820181905260009190848201906040850190845b81811015611b5457611b418385516119f0565b9284019260809290920191600101611b2e565b50909695505050505050565b60008060408385031215611b7357600080fd5b823560058110611b8257600080fd5b946020939093013593505050565b634e487b7160e01b600052604160045260246000fd5b634e487b7160e01b600052601160045260246000fd5b600082821015611bce57611bce611ba6565b500390565b634e487b7160e01b600052603260045260246000fd5b600060018201611bfb57611bfb611ba6565b5060010190565b60008219821115611c1557611c15611ba6565b50019056fea26469706673582212204ace97783fee73b0bbe85579d7492a8d70448ce5a0d40efc92a5cd9f970d3f5264736f6c634300080d0033",
    "linkReferences": {}
  },
  "methodIdentifiers": {
    "allUsers(uint256)": "a2bdedf4",
    "blockResults(uint256)": "0888d514",
    "castVote(uint8,uint256)": "f9135be9",
    "getAllStreaks()": "75f61f19",
    "getAllUsers()": "e2842d79",
    "getResultsOfPreviousBlocks(uint256)": "2465170b",
    "getTopStreaks(uint256)": "d8c8ec5e",
    "getUserByAddress(address)": "69c212f6",
    "lastWinningMove()": "d464d60d",
    "lastWinningMoveBlockHeight()": "a356f9e4",
    "users(address)": "a87430ba",
    "winningStreaks(uint256)": "73a6a35b"
  },
  "id": 0
}