{
  "abi": [
    {
      "inputs": [
        {
          "internalType": "uint256",
          "name": "blockHeight",
          "type": "uint256"
        }
      ],
      "name": "calculateBlockResults",
      "outputs": [
        {
          "internalType": "string",
          "name": "",
          "type": "string"
        }
      ],
      "stateMutability": "view",
      "type": "function"
    },
    {
      "inputs": [
        {
          "internalType": "string",
          "name": "choice",
          "type": "string"
        },
        {
          "internalType": "string",
          "name": "persona",
          "type": "string"
        },
        {
          "internalType": "uint256",
          "name": "blockHeight",
          "type": "uint256"
        }
      ],
      "name": "castVote",
      "outputs": [],
      "stateMutability": "payable",
      "type": "function"
    },
    {
      "inputs": [
        {
          "internalType": "uint256",
          "name": "",
          "type": "uint256"
        }
      ],
      "name": "choiceList",
      "outputs": [
        {
          "internalType": "string",
          "name": "",
          "type": "string"
        }
      ],
      "stateMutability": "view",
      "type": "function"
    },
    {
      "inputs": [
        {
          "internalType": "string",
          "name": "s1",
          "type": "string"
        },
        {
          "internalType": "string",
          "name": "s2",
          "type": "string"
        }
      ],
      "name": "compareStringsbyBytes",
      "outputs": [
        {
          "internalType": "bool",
          "name": "",
          "type": "bool"
        }
      ],
      "stateMutability": "pure",
      "type": "function"
    },
    {
      "inputs": [
        {
          "internalType": "uint256",
          "name": "range",
          "type": "uint256"
        },
        {
          "internalType": "uint256",
          "name": "blockHeight",
          "type": "uint256"
        }
      ],
      "name": "historyForRange",
      "outputs": [
        {
          "components": [
            {
              "internalType": "string",
              "name": "result",
              "type": "string"
            },
            {
              "internalType": "uint256",
              "name": "blockHeight",
              "type": "uint256"
            },
            {
              "components": [
                {
                  "internalType": "uint256",
                  "name": "votes",
                  "type": "uint256"
                },
                {
                  "components": [
                    {
                      "internalType": "string",
                      "name": "persona",
                      "type": "string"
                    },
                    {
                      "internalType": "address",
                      "name": "sender",
                      "type": "address"
                    }
                  ],
                  "internalType": "struct BlockPaperScissors.Vote[]",
                  "name": "voters",
                  "type": "tuple[]"
                }
              ],
              "internalType": "struct BlockPaperScissors.Votes",
              "name": "blockVotes",
              "type": "tuple"
            },
            {
              "components": [
                {
                  "internalType": "uint256",
                  "name": "votes",
                  "type": "uint256"
                },
                {
                  "components": [
                    {
                      "internalType": "string",
                      "name": "persona",
                      "type": "string"
                    },
                    {
                      "internalType": "address",
                      "name": "sender",
                      "type": "address"
                    }
                  ],
                  "internalType": "struct BlockPaperScissors.Vote[]",
                  "name": "voters",
                  "type": "tuple[]"
                }
              ],
              "internalType": "struct BlockPaperScissors.Votes",
              "name": "paperVotes",
              "type": "tuple"
            },
            {
              "components": [
                {
                  "internalType": "uint256",
                  "name": "votes",
                  "type": "uint256"
                },
                {
                  "components": [
                    {
                      "internalType": "string",
                      "name": "persona",
                      "type": "string"
                    },
                    {
                      "internalType": "address",
                      "name": "sender",
                      "type": "address"
                    }
                  ],
                  "internalType": "struct BlockPaperScissors.Vote[]",
                  "name": "voters",
                  "type": "tuple[]"
                }
              ],
              "internalType": "struct BlockPaperScissors.Votes",
              "name": "scissorsVotes",
              "type": "tuple"
            }
          ],
          "internalType": "struct BlockPaperScissors.VotesWithResultsInBlock[]",
          "name": "",
          "type": "tuple[]"
        }
      ],
      "stateMutability": "view",
      "type": "function"
    },
    {
      "inputs": [
        {
          "internalType": "uint256",
          "name": "",
          "type": "uint256"
        }
      ],
      "name": "personaList",
      "outputs": [
        {
          "internalType": "string",
          "name": "",
          "type": "string"
        }
      ],
      "stateMutability": "view",
      "type": "function"
    },
    {
      "inputs": [
        {
          "internalType": "uint256",
          "name": "blockHeight",
          "type": "uint256"
        }
      ],
      "name": "totalVotesForBlock",
      "outputs": [
        {
          "components": [
            {
              "components": [
                {
                  "internalType": "uint256",
                  "name": "votes",
                  "type": "uint256"
                },
                {
                  "components": [
                    {
                      "internalType": "string",
                      "name": "persona",
                      "type": "string"
                    },
                    {
                      "internalType": "address",
                      "name": "sender",
                      "type": "address"
                    }
                  ],
                  "internalType": "struct BlockPaperScissors.Vote[]",
                  "name": "voters",
                  "type": "tuple[]"
                }
              ],
              "internalType": "struct BlockPaperScissors.Votes",
              "name": "blockVotes",
              "type": "tuple"
            },
            {
              "components": [
                {
                  "internalType": "uint256",
                  "name": "votes",
                  "type": "uint256"
                },
                {
                  "components": [
                    {
                      "internalType": "string",
                      "name": "persona",
                      "type": "string"
                    },
                    {
                      "internalType": "address",
                      "name": "sender",
                      "type": "address"
                    }
                  ],
                  "internalType": "struct BlockPaperScissors.Vote[]",
                  "name": "voters",
                  "type": "tuple[]"
                }
              ],
              "internalType": "struct BlockPaperScissors.Votes",
              "name": "paperVotes",
              "type": "tuple"
            },
            {
              "components": [
                {
                  "internalType": "uint256",
                  "name": "votes",
                  "type": "uint256"
                },
                {
                  "components": [
                    {
                      "internalType": "string",
                      "name": "persona",
                      "type": "string"
                    },
                    {
                      "internalType": "address",
                      "name": "sender",
                      "type": "address"
                    }
                  ],
                  "internalType": "struct BlockPaperScissors.Vote[]",
                  "name": "voters",
                  "type": "tuple[]"
                }
              ],
              "internalType": "struct BlockPaperScissors.Votes",
              "name": "scissorsVotes",
              "type": "tuple"
            }
          ],
          "internalType": "struct BlockPaperScissors.VotesInBlock",
          "name": "",
          "type": "tuple"
        }
      ],
      "stateMutability": "view",
      "type": "function"
    },
    {
      "inputs": [
        {
          "internalType": "string",
          "name": "choice",
          "type": "string"
        },
        {
          "internalType": "uint256",
          "name": "blockHeight",
          "type": "uint256"
        }
      ],
      "name": "totalVotesForChoice",
      "outputs": [
        {
          "components": [
            {
              "internalType": "uint256",
              "name": "votes",
              "type": "uint256"
            },
            {
              "components": [
                {
                  "internalType": "string",
                  "name": "persona",
                  "type": "string"
                },
                {
                  "internalType": "address",
                  "name": "sender",
                  "type": "address"
                }
              ],
              "internalType": "struct BlockPaperScissors.Vote[]",
              "name": "voters",
              "type": "tuple[]"
            }
          ],
          "internalType": "struct BlockPaperScissors.Votes",
          "name": "",
          "type": "tuple"
        }
      ],
      "stateMutability": "view",
      "type": "function"
    },
    {
      "inputs": [
        {
          "internalType": "string",
          "name": "choice",
          "type": "string"
        }
      ],
      "name": "validChoice",
      "outputs": [
        {
          "internalType": "bool",
          "name": "",
          "type": "bool"
        }
      ],
      "stateMutability": "view",
      "type": "function"
    },
    {
      "inputs": [
        {
          "internalType": "string",
          "name": "persona",
          "type": "string"
        }
      ],
      "name": "validPersona",
      "outputs": [
        {
          "internalType": "bool",
          "name": "",
          "type": "bool"
        }
      ],
      "stateMutability": "view",
      "type": "function"
    },
    {
      "inputs": [
        {
          "internalType": "string",
          "name": "choice",
          "type": "string"
        },
        {
          "internalType": "uint256",
          "name": "blockHeight",
          "type": "uint256"
        }
      ],
      "name": "validVoter",
      "outputs": [
        {
          "internalType": "bool",
          "name": "",
          "type": "bool"
        }
      ],
      "stateMutability": "view",
      "type": "function"
    },
    {
      "inputs": [
        {
          "internalType": "uint256",
          "name": "",
          "type": "uint256"
        },
        {
          "internalType": "string",
          "name": "",
          "type": "string"
        }
      ],
      "name": "votesPerBlock",
      "outputs": [
        {
          "internalType": "uint256",
          "name": "votes",
          "type": "uint256"
        }
      ],
      "stateMutability": "view",
      "type": "function"
    }
  ],
  "bytecode": {
    "object": "0x600560e081815264626c6f636b60d81b610100526080908152610120918252643830b832b960d91b6101405260a0919091526101a060405260086101609081526773636973736f727360c01b6101805260c0526200006290600290600362000104565b50604051806060016040528060405180604001604052806007815260200166313ab4b63232b960c91b81525081526020016040518060400160405280600a81526020016939b832b1bab630ba37b960b11b815250815260200160405180604001604052806006815260200165185c9d1a5cdd60d21b8152508152506005906003620000ef92919062000104565b50348015620000fd57600080fd5b506200029c565b826003810192821562000149579160200282015b82811115620001495782518051620001389184916020909101906200015b565b509160200191906001019062000118565b5062000157929150620001e6565b5090565b828054620001699062000260565b90600052602060002090601f0160209004810192826200018d5760008555620001d8565b82601f10620001a857805160ff1916838001178555620001d8565b82800160010185558215620001d8579182015b82811115620001d8578251825591602001919060010190620001bb565b506200015792915062000207565b8082111562000157576000620001fd82826200021e565b50600101620001e6565b5b8082111562000157576000815560010162000208565b5080546200022c9062000260565b6000825580601f106200023d575050565b601f0160209004906000526020600020908101906200025d919062000207565b50565b600181811c908216806200027557607f821691505b6020821081036200029657634e487b7160e01b600052602260045260246000fd5b50919050565b6117cd80620002ac6000396000f3fe6080604052600436106100a75760003560e01c806391e706ea1161006457806391e706ea146101d65780639a0652d6146101f6578063b0ca23ea14610216578063ca8ac8f714610243578063dcaad32f14610270578063e9a734ff1461028557600080fd5b8063331a897d146100ac5780633b895867146100e2578063684908bd1461010f5780636b906d441461012f578063715139651461018657806391cadabe146101a6575b600080fd5b3480156100b857600080fd5b506100cc6100c7366004611121565b6102a5565b6040516100d99190611196565b60405180910390f35b3480156100ee57600080fd5b506101026100fd3660046111f2565b610496565b6040516100d991906112cb565b34801561011b57600080fd5b506100cc61012a366004611121565b61060e565b34801561013b57600080fd5b5061017861014a366004611381565b6001602090815260009283526040909220815180830184018051928152908401929093019190912091525481565b6040519081526020016100d9565b34801561019257600080fd5b506100cc6101a1366004611121565b6106ae565b3480156101b257600080fd5b506101c66101c13660046113c8565b6106be565b60405190151581526020016100d9565b3480156101e257600080fd5b506101c66101f13660046111f2565b6107d4565b34801561020257600080fd5b506101c66102113660046113c8565b61089e565b34801561022257600080fd5b5061023661023136600461140a565b6108e2565b6040516100d9919061142c565b34801561024f57600080fd5b5061026361025e366004611121565b610a37565b6040516100d991906114f3565b61028361027e366004611554565b610e2b565b005b34801561029157600080fd5b506101c66102a03660046115c8565b610f8f565b60008181526001602052604081206060918291600282016040516102c99190611672565b9081526020016040518091039020600001549050600060016000868152602001908152602001600020600260016003811061030657610306611622565b016040516103149190611672565b9081526040805160209281900383018120546000898152600190945291832091935061034290600490611672565b908152604051908190036020019020549050818311801561036257508083115b156103fd57600260005b01805461037890611638565b80601f01602080910402602001604051908101604052809291908181526020018280546103a490611638565b80156103f15780601f106103c6576101008083540402835291602001916103f1565b820191906000526020600020905b8154815290600101906020018083116103d457829003601f168201915b5050505050935061048c565b828211801561040b57508082115b15610419576002600161036c565b828111801561042757508181115b156104345760028061036c565b8183148061044157508083145b8061044b57508082145b1561047957604051806040016040528060098152602001687374616c656d61746560b81b815250935061048c565b6040518060200160405280600081525093505b5091949350505050565b6040805180820190915260008152606060208201526104b584846106be565b6104be57600080fd5b6000828152600160205260409081902090516104dd908690869061170d565b90815260200160405180910390206040518060400160405290816000820154815260200160018201805480602002602001604051908101604052809291908181526020016000905b828210156105fc578382906000526020600020906002020160405180604001604052908160008201805461055890611638565b80601f016020809104026020016040519081016040528092919081815260200182805461058490611638565b80156105d15780601f106105a6576101008083540402835291602001916105d1565b820191906000526020600020905b8154815290600101906020018083116105b457829003601f168201915b50505091835250506001918201546001600160a01b0316602091820152918352929092019101610525565b505050508152505090505b9392505050565b6002816003811061061e57600080fd5b01805490915061062d90611638565b80601f016020809104026020016040519081016040528092919081815260200182805461065990611638565b80156106a65780601f1061067b576101008083540402835291602001916106a6565b820191906000526020600020905b81548152906001019060200180831161068957829003601f168201915b505050505081565b6005816003811061061e57600080fd5b6000805b60038110156107c8576107a7600282600381106106e1576106e1611622565b0180546106ed90611638565b80601f016020809104026020016040519081016040528092919081815260200182805461071990611638565b80156107665780601f1061073b57610100808354040283529160200191610766565b820191906000526020600020905b81548152906001019060200180831161074957829003601f168201915b505050505085858080601f016020809104026020016040519081016040528093929190818152602001838380828437600092019190915250610f8f92505050565b156107b65760019150506107ce565b806107c081611733565b9150506106c2565b50600090505b92915050565b6000805b6000838152600160205260409081902090516107f7908790879061170d565b9081526040519081900360200190206001015481101561089357600083815260016020526040908190209051339190610833908890889061170d565b9081526020016040518091039020600101828154811061085557610855611622565b60009182526020909120600160029092020101546001600160a01b031603610881576000915050610607565b8061088b81611733565b9150506107d8565b506001949350505050565b6000805b60038110156107c8576108c1600582600381106106e1576106e1611622565b156108d05760019150506107ce565b806108da81611733565b9150506108a2565b606060006108f184600161174c565b67ffffffffffffffff811115610909576109096112de565b60405190808252806020026020018201604052801561094257816020015b61092f610fe8565b8152602001906001900390816109275790505b50905060005b848111610a2f57600061095e61025e8387611764565b9050610968610fe8565b815160408083019190915260208301516060830152820151608082015260006109946100c78589611764565b905060006109b160016109a7878b611764565b6100c79190611764565b90506109bd8282610f8f565b156109e4576040805180820190915260048152636472617760e01b602082015283526109e8565b8183525b6109f28589611764565b602084015285518390879087908110610a0d57610a0d611622565b6020026020010181905250505050508080610a2790611733565b915050610948565b509392505050565b610a3f611067565b610a47611067565b600083815260016020526040812090600201604051610a669190611672565b90815260200160405180910390206040518060400160405290816000820154815260200160018201805480602002602001604051908101604052809291908181526020016000905b82821015610b855783829060005260206000209060020201604051806040016040529081600082018054610ae190611638565b80601f0160208091040260200160405190810160405280929190818152602001828054610b0d90611638565b8015610b5a5780601f10610b2f57610100808354040283529160200191610b5a565b820191906000526020600020905b815481529060010190602001808311610b3d57829003601f168201915b50505091835250506001918201546001600160a01b0316602091820152918352929092019101610aae565b505050915250508152600083815260016020526040908190209051610bac90600390611672565b90815260200160405180910390206040518060400160405290816000820154815260200160018201805480602002602001604051908101604052809291908181526020016000905b82821015610ccb5783829060005260206000209060020201604051806040016040529081600082018054610c2790611638565b80601f0160208091040260200160405190810160405280929190818152602001828054610c5390611638565b8015610ca05780601f10610c7557610100808354040283529160200191610ca0565b820191906000526020600020905b815481529060010190602001808311610c8357829003601f168201915b50505091835250506001918201546001600160a01b0316602091820152918352929092019101610bf4565b50505091525050602080830191909152600084815260019091526040902060028001604051610cfa9190611672565b90815260200160405180910390206040518060400160405290816000820154815260200160018201805480602002602001604051908101604052809291908181526020016000905b82821015610e195783829060005260206000209060020201604051806040016040529081600082018054610d7590611638565b80601f0160208091040260200160405190810160405280929190818152602001828054610da190611638565b8015610dee5780601f10610dc357610100808354040283529160200191610dee565b820191906000526020600020905b815481529060010190602001808311610dd157829003601f168201915b50505091835250506001918201546001600160a01b0316602091820152918352929092019101610d42565b50505091525050604082015292915050565b4360005414610e3957436000555b610e4385856106be565b610e4c57600080fd5b610e56838361089e565b610e5f57600080fd5b610e6a8585836107d4565b610e7357600080fd5b60018060008381526020019081526020016000208686604051610e9792919061170d565b90815260200160405180910390206000016000828254610eb7919061174c565b9091555050600081815260016020526040908190209051610edb908790879061170d565b9081526020016040518091039020600101604051806040016040528085858080601f016020809104026020016040519081016040528093929190818152602001838380828437600092018290525093855250503360209384015250835460018101855593815281902082518051939460020290910192610f5e9284920190611088565b5060209190910151600190910180546001600160a01b0319166001600160a01b039092169190911790555050505050565b600081604051602001610fa2919061177b565b6040516020818303038152906040528051906020012083604051602001610fc9919061177b565b6040516020818303038152906040528051906020012014905092915050565b6040518060a00160405280606081526020016000815260200161101e604051806040016040528060008152602001606081525090565b8152602001611040604051806040016040528060008152602001606081525090565b8152602001611062604051806040016040528060008152602001606081525090565b905290565b6040805160a08101909152600060608083019182526080830152819061101e565b82805461109490611638565b90600052602060002090601f0160209004810192826110b657600085556110fc565b82601f106110cf57805160ff19168380011785556110fc565b828001600101855582156110fc579182015b828111156110fc5782518255916020019190600101906110e1565b5061110892915061110c565b5090565b5b80821115611108576000815560010161110d565b60006020828403121561113357600080fd5b5035919050565b60005b8381101561115557818101518382015260200161113d565b83811115611164576000848401525b50505050565b6000815180845261118281602086016020860161113a565b601f01601f19169290920160200192915050565b602081526000610607602083018461116a565b60008083601f8401126111bb57600080fd5b50813567ffffffffffffffff8111156111d357600080fd5b6020830191508360208285010111156111eb57600080fd5b9250929050565b60008060006040848603121561120757600080fd5b833567ffffffffffffffff81111561121e57600080fd5b61122a868287016111a9565b909790965060209590950135949350505050565b6000604080840183518552602080850151838288015282815180855260608901915060608160051b8a01019450838301925060005b818110156112bd57898603605f19018352835180518888526112978989018261116a565b918701516001600160a01b03169787019790975295509284019291840191600101611273565b509398975050505050505050565b602081526000610607602083018461123e565b634e487b7160e01b600052604160045260246000fd5b600082601f83011261130557600080fd5b813567ffffffffffffffff80821115611320576113206112de565b604051601f8301601f19908116603f01168101908282118183101715611348576113486112de565b8160405283815286602085880101111561136157600080fd5b836020870160208301376000602085830101528094505050505092915050565b6000806040838503121561139457600080fd5b82359150602083013567ffffffffffffffff8111156113b257600080fd5b6113be858286016112f4565b9150509250929050565b600080602083850312156113db57600080fd5b823567ffffffffffffffff8111156113f257600080fd5b6113fe858286016111a9565b90969095509350505050565b6000806040838503121561141d57600080fd5b50508035926020909101359150565b60006020808301818452808551808352604092508286019150828160051b87010184880160005b838110156114e557603f19898403018552815160a081518186526114798287018261116a565b91505088820151898601528782015185820389870152611499828261123e565b915050606080830151868303828801526114b3838261123e565b92505050608080830151925085820381870152506114d1818361123e565b968901969450505090860190600101611453565b509098975050505050505050565b60208152600082516060602084015261150f608084018261123e565b90506020840151601f198085840301604086015261152d838361123e565b925060408601519150808584030160608601525061154b828261123e565b95945050505050565b60008060008060006060868803121561156c57600080fd5b853567ffffffffffffffff8082111561158457600080fd5b61159089838a016111a9565b909750955060208801359150808211156115a957600080fd5b506115b6888289016111a9565b96999598509660400135949350505050565b600080604083850312156115db57600080fd5b823567ffffffffffffffff808211156115f357600080fd5b6115ff868387016112f4565b9350602085013591508082111561161557600080fd5b506113be858286016112f4565b634e487b7160e01b600052603260045260246000fd5b600181811c9082168061164c57607f821691505b60208210810361166c57634e487b7160e01b600052602260045260246000fd5b50919050565b600080835481600182811c91508083168061168e57607f831692505b602080841082036116ad57634e487b7160e01b86526022600452602486fd5b8180156116c157600181146116d2576116ff565b60ff198616895284890196506116ff565b60008a81526020902060005b868110156116f75781548b8201529085019083016116de565b505084890196505b509498975050505050505050565b8183823760009101908152919050565b634e487b7160e01b600052601160045260246000fd5b6000600182016117455761174561171d565b5060010190565b6000821982111561175f5761175f61171d565b500190565b6000828210156117765761177661171d565b500390565b6000825161178d81846020870161113a565b919091019291505056fea26469706673582212209d81ad23141d6e10dcbe3ffebbac753ffb42472618515134130abc2033b72ca764736f6c634300080d0033",
    "linkReferences": {}
  },
  "methodIdentifiers": {
    "calculateBlockResults(uint256)": "331a897d",
    "castVote(string,string,uint256)": "dcaad32f",
    "choiceList(uint256)": "684908bd",
    "compareStringsbyBytes(string,string)": "e9a734ff",
    "historyForRange(uint256,uint256)": "b0ca23ea",
    "personaList(uint256)": "71513965",
    "totalVotesForBlock(uint256)": "ca8ac8f7",
    "totalVotesForChoice(string,uint256)": "3b895867",
    "validChoice(string)": "91cadabe",
    "validPersona(string)": "9a0652d6",
    "validVoter(string,uint256)": "91e706ea",
    "votesPerBlock(uint256,string)": "6b906d44"
  },
  "id": 0
}