{
  "abi": [
    {
      "anonymous": false,
      "inputs": [
        {
          "indexed": false,
          "internalType": "address",
          "name": "voter",
          "type": "address"
        },
        {
          "indexed": false,
          "internalType": "string",
          "name": "choice",
          "type": "string"
        },
        {
          "indexed": false,
          "internalType": "bool",
          "name": "accountExists",
          "type": "bool"
        }
      ],
      "name": "LogAccount",
      "type": "event"
    },
    {
      "inputs": [
        {
          "internalType": "address",
          "name": "",
          "type": "address"
        }
      ],
      "name": "accountStates",
      "outputs": [
        {
          "internalType": "bool",
          "name": "accountExists",
          "type": "bool"
        },
        {
          "internalType": "address",
          "name": "accountAddress",
          "type": "address"
        },
        {
          "internalType": "uint256",
          "name": "blockHeightOfLastMove",
          "type": "uint256"
        },
        {
          "internalType": "string",
          "name": "lastMove",
          "type": "string"
        },
        {
          "internalType": "uint256",
          "name": "movesMade",
          "type": "uint256"
        }
      ],
      "stateMutability": "view",
      "type": "function"
    },
    {
      "inputs": [],
      "name": "allAccountStates",
      "outputs": [
        {
          "components": [
            {
              "internalType": "bool",
              "name": "accountExists",
              "type": "bool"
            },
            {
              "internalType": "address",
              "name": "accountAddress",
              "type": "address"
            },
            {
              "internalType": "uint256",
              "name": "blockHeightOfLastMove",
              "type": "uint256"
            },
            {
              "internalType": "string",
              "name": "lastMove",
              "type": "string"
            },
            {
              "internalType": "uint256",
              "name": "movesMade",
              "type": "uint256"
            }
          ],
          "internalType": "struct BlockPaperScissors.AccountState[]",
          "name": "",
          "type": "tuple[]"
        }
      ],
      "stateMutability": "view",
      "type": "function"
    },
    {
      "inputs": [
        {
          "internalType": "uint256",
          "name": "blockHeight",
          "type": "uint256"
        }
      ],
      "name": "calculateBlockResults",
      "outputs": [
        {
          "internalType": "string",
          "name": "",
          "type": "string"
        }
      ],
      "stateMutability": "view",
      "type": "function"
    },
    {
      "inputs": [
        {
          "internalType": "string",
          "name": "choice",
          "type": "string"
        },
        {
          "internalType": "uint256",
          "name": "blockHeight",
          "type": "uint256"
        }
      ],
      "name": "castVote",
      "outputs": [],
      "stateMutability": "payable",
      "type": "function"
    },
    {
      "inputs": [
        {
          "internalType": "uint256",
          "name": "",
          "type": "uint256"
        }
      ],
      "name": "choiceList",
      "outputs": [
        {
          "internalType": "string",
          "name": "",
          "type": "string"
        }
      ],
      "stateMutability": "view",
      "type": "function"
    },
    {
      "inputs": [
        {
          "internalType": "string",
          "name": "s1",
          "type": "string"
        },
        {
          "internalType": "string",
          "name": "s2",
          "type": "string"
        }
      ],
      "name": "compareStringsbyBytes",
      "outputs": [
        {
          "internalType": "bool",
          "name": "",
          "type": "bool"
        }
      ],
      "stateMutability": "pure",
      "type": "function"
    },
    {
      "inputs": [],
      "name": "getAllAddresses",
      "outputs": [
        {
          "internalType": "address[]",
          "name": "",
          "type": "address[]"
        }
      ],
      "stateMutability": "view",
      "type": "function"
    },
    {
      "inputs": [
        {
          "internalType": "uint256",
          "name": "range",
          "type": "uint256"
        },
        {
          "internalType": "uint256",
          "name": "blockHeight",
          "type": "uint256"
        }
      ],
      "name": "historyForRange",
      "outputs": [
        {
          "components": [
            {
              "internalType": "string",
              "name": "result",
              "type": "string"
            },
            {
              "internalType": "uint256",
              "name": "blockHeight",
              "type": "uint256"
            },
            {
              "components": [
                {
                  "internalType": "uint256",
                  "name": "votes",
                  "type": "uint256"
                },
                {
                  "internalType": "address[]",
                  "name": "voters",
                  "type": "address[]"
                }
              ],
              "internalType": "struct BlockPaperScissors.Votes",
              "name": "blockVotes",
              "type": "tuple"
            },
            {
              "components": [
                {
                  "internalType": "uint256",
                  "name": "votes",
                  "type": "uint256"
                },
                {
                  "internalType": "address[]",
                  "name": "voters",
                  "type": "address[]"
                }
              ],
              "internalType": "struct BlockPaperScissors.Votes",
              "name": "paperVotes",
              "type": "tuple"
            },
            {
              "components": [
                {
                  "internalType": "uint256",
                  "name": "votes",
                  "type": "uint256"
                },
                {
                  "internalType": "address[]",
                  "name": "voters",
                  "type": "address[]"
                }
              ],
              "internalType": "struct BlockPaperScissors.Votes",
              "name": "scissorsVotes",
              "type": "tuple"
            }
          ],
          "internalType": "struct BlockPaperScissors.VotesWithResultsInBlock[]",
          "name": "",
          "type": "tuple[]"
        }
      ],
      "stateMutability": "view",
      "type": "function"
    },
    {
      "inputs": [],
      "name": "myAccountState",
      "outputs": [
        {
          "components": [
            {
              "internalType": "bool",
              "name": "accountExists",
              "type": "bool"
            },
            {
              "internalType": "address",
              "name": "accountAddress",
              "type": "address"
            },
            {
              "internalType": "uint256",
              "name": "blockHeightOfLastMove",
              "type": "uint256"
            },
            {
              "internalType": "string",
              "name": "lastMove",
              "type": "string"
            },
            {
              "internalType": "uint256",
              "name": "movesMade",
              "type": "uint256"
            }
          ],
          "internalType": "struct BlockPaperScissors.AccountState",
          "name": "",
          "type": "tuple"
        }
      ],
      "stateMutability": "view",
      "type": "function"
    },
    {
      "inputs": [
        {
          "internalType": "address",
          "name": "account",
          "type": "address"
        }
      ],
      "name": "singleAccountState",
      "outputs": [
        {
          "components": [
            {
              "internalType": "bool",
              "name": "accountExists",
              "type": "bool"
            },
            {
              "internalType": "address",
              "name": "accountAddress",
              "type": "address"
            },
            {
              "internalType": "uint256",
              "name": "blockHeightOfLastMove",
              "type": "uint256"
            },
            {
              "internalType": "string",
              "name": "lastMove",
              "type": "string"
            },
            {
              "internalType": "uint256",
              "name": "movesMade",
              "type": "uint256"
            }
          ],
          "internalType": "struct BlockPaperScissors.AccountState",
          "name": "",
          "type": "tuple"
        }
      ],
      "stateMutability": "view",
      "type": "function"
    },
    {
      "inputs": [
        {
          "internalType": "uint256",
          "name": "blockHeight",
          "type": "uint256"
        }
      ],
      "name": "totalVotesForBlock",
      "outputs": [
        {
          "components": [
            {
              "components": [
                {
                  "internalType": "uint256",
                  "name": "votes",
                  "type": "uint256"
                },
                {
                  "internalType": "address[]",
                  "name": "voters",
                  "type": "address[]"
                }
              ],
              "internalType": "struct BlockPaperScissors.Votes",
              "name": "blockVotes",
              "type": "tuple"
            },
            {
              "components": [
                {
                  "internalType": "uint256",
                  "name": "votes",
                  "type": "uint256"
                },
                {
                  "internalType": "address[]",
                  "name": "voters",
                  "type": "address[]"
                }
              ],
              "internalType": "struct BlockPaperScissors.Votes",
              "name": "paperVotes",
              "type": "tuple"
            },
            {
              "components": [
                {
                  "internalType": "uint256",
                  "name": "votes",
                  "type": "uint256"
                },
                {
                  "internalType": "address[]",
                  "name": "voters",
                  "type": "address[]"
                }
              ],
              "internalType": "struct BlockPaperScissors.Votes",
              "name": "scissorsVotes",
              "type": "tuple"
            }
          ],
          "internalType": "struct BlockPaperScissors.VotesInBlock",
          "name": "",
          "type": "tuple"
        }
      ],
      "stateMutability": "view",
      "type": "function"
    },
    {
      "inputs": [
        {
          "internalType": "string",
          "name": "choice",
          "type": "string"
        },
        {
          "internalType": "uint256",
          "name": "blockHeight",
          "type": "uint256"
        }
      ],
      "name": "totalVotesForChoice",
      "outputs": [
        {
          "components": [
            {
              "internalType": "uint256",
              "name": "votes",
              "type": "uint256"
            },
            {
              "internalType": "address[]",
              "name": "voters",
              "type": "address[]"
            }
          ],
          "internalType": "struct BlockPaperScissors.Votes",
          "name": "",
          "type": "tuple"
        }
      ],
      "stateMutability": "view",
      "type": "function"
    },
    {
      "inputs": [
        {
          "internalType": "string",
          "name": "choice",
          "type": "string"
        }
      ],
      "name": "validChoice",
      "outputs": [
        {
          "internalType": "bool",
          "name": "",
          "type": "bool"
        }
      ],
      "stateMutability": "view",
      "type": "function"
    },
    {
      "inputs": [
        {
          "internalType": "string",
          "name": "choice",
          "type": "string"
        },
        {
          "internalType": "uint256",
          "name": "blockHeight",
          "type": "uint256"
        }
      ],
      "name": "validVoter",
      "outputs": [
        {
          "internalType": "bool",
          "name": "",
          "type": "bool"
        }
      ],
      "stateMutability": "view",
      "type": "function"
    },
    {
      "inputs": [
        {
          "internalType": "uint256",
          "name": "",
          "type": "uint256"
        },
        {
          "internalType": "string",
          "name": "",
          "type": "string"
        }
      ],
      "name": "votesPerBlock",
      "outputs": [
        {
          "internalType": "uint256",
          "name": "votes",
          "type": "uint256"
        }
      ],
      "stateMutability": "view",
      "type": "function"
    }
  ],
  "bytecode": {
    "object": "0x600560e081815264626c6f636b60d81b610100526080908152610120918252643830b832b960d91b6101405260a0919091526101a060405260086101609081526773636973736f727360c01b6101805260c0526200006290600490600362000077565b503480156200007057600080fd5b506200020f565b8260038101928215620000bc579160200282015b82811115620000bc5782518051620000ab918491602090910190620000ce565b50916020019190600101906200008b565b50620000ca92915062000159565b5090565b828054620000dc90620001d3565b90600052602060002090601f0160209004810192826200010057600085556200014b565b82601f106200011b57805160ff19168380011785556200014b565b828001600101855582156200014b579182015b828111156200014b5782518255916020019190600101906200012e565b50620000ca9291506200017a565b80821115620000ca57600062000170828262000191565b5060010162000159565b5b80821115620000ca57600081556001016200017b565b5080546200019f90620001d3565b6000825580601f10620001b0575050565b601f016020900490600052602060002090810190620001d091906200017a565b50565b600181811c90821680620001e857607f821691505b6020821081036200020957634e487b7160e01b600052602260045260246000fd5b50919050565b61218c806200021f6000396000f3fe6080604052600436106100e85760003560e01c80639516a1041161008a578063ca8ac8f711610059578063ca8ac8f7146102e6578063e3b9e2fa14610313578063e9a734ff14610328578063f377b5ec1461034857600080fd5b80639516a10414610244578063a59039e314610266578063b0ca23ea14610288578063c0b57ffb146102b557600080fd5b8063684908bd116100c6578063684908bd1461017d5780636b906d441461019d57806391cadabe146101f457806391e706ea1461022457600080fd5b806310e94ab0146100ed578063331a897d146101235780633b89586714610150575b600080fd5b3480156100f957600080fd5b5061010d610108366004611a0a565b61035d565b60405161011a9190611ae0565b60405180910390f35b34801561012f57600080fd5b5061014361013e366004611af3565b61054b565b60405161011a9190611b0c565b34801561015c57600080fd5b5061017061016b366004611b68565b610779565b60405161011a9190611c14565b34801561018957600080fd5b50610143610198366004611af3565b61084f565b3480156101a957600080fd5b506101e66101b8366004611cca565b6001602090815260009283526040909220815180830184018051928152908401929093019190912091525481565b60405190815260200161011a565b34801561020057600080fd5b5061021461020f366004611d11565b6108ef565b604051901515815260200161011a565b34801561023057600080fd5b5061021461023f366004611b68565b610a05565b34801561025057600080fd5b50610259610ac7565b60405161011a9190611d53565b34801561027257600080fd5b5061027b610b29565b60405161011a9190611da0565b34801561029457600080fd5b506102a86102a3366004611e02565b610ecf565b60405161011a9190611e24565b3480156102c157600080fd5b506102d56102d0366004611a0a565b61108c565b60405161011a959493929190611eeb565b3480156102f257600080fd5b50610306610301366004611af3565b611152565b60405161011a9190611f2c565b610326610321366004611b68565b611367565b005b34801561033457600080fd5b50610214610343366004611f8d565b61165d565b34801561035457600080fd5b5061010d6116b6565b610365611897565b6001600160a01b038083166000908152600260208181526040808420815160a081018352815460ff81161515825261010090049096169286019290925260018201549085015290810180549293926060840191906103c290611fe7565b80601f01602080910402602001604051908101604052809291908181526020018280546103ee90611fe7565b801561043b5780601f106104105761010080835404028352916020019161043b565b820191906000526020600020905b81548152906001019060200180831161041e57829003601f168201915b5050509183525050600391909101546020918201526001600160a01b03808616600081815260028085526040808320805461010081049096168888015260ff9095161515875260018501549087015291905291829052018054919250906104a190611fe7565b80601f01602080910402602001604051908101604052809291908181526020018280546104cd90611fe7565b801561051a5780601f106104ef5761010080835404028352916020019161051a565b820191906000526020600020905b8154815290600101906020018083116104fd57829003601f168201915b505050505060608201526001600160a01b039290921660009081526002602052604090206003015460808301525090565b600081815260016020526040812060609182916004820160405161056f9190612031565b908152602001604051809103902060000154905060006001600086815260200190815260200160002060046001600381106105ac576105ac61201b565b016040516105ba9190612031565b908152604080516020928190038301812054600089815260019094529183209193506105e890600690612031565b908152604051908190036020019020549050818311801561060857508083115b156106a357600460005b01805461061e90611fe7565b80601f016020809104026020016040519081016040528092919081815260200182805461064a90611fe7565b80156106975780601f1061066c57610100808354040283529160200191610697565b820191906000526020600020905b81548152906001019060200180831161067a57829003601f168201915b5050505050935061076f565b82821180156106b157508082115b156106bf5760046001610612565b82811180156106cd57508181115b156106db5760046002610612565b82811480156106e957508181145b1561071757604051806040016040528060098152602001687374616c656d61746560b81b815250935061076f565b8183148061072457508083145b8061072e57508082145b1561075c57604051806040016040528060098152602001687374616c656d61746560b81b815250935061076f565b6040518060200160405280600081525093505b5091949350505050565b60408051808201909152600081526060602082015261079884846108ef565b6107a157600080fd5b6000828152600160205260409081902090516107c090869086906120cc565b9081526020016040518091039020604051806040016040529081600082015481526020016001820180548060200260200160405190810160405280929190818152602001828054801561083c57602002820191906000526020600020905b81546001600160a01b0316815260019091019060200180831161081e575b50505050508152505090505b9392505050565b6004816003811061085f57600080fd5b01805490915061086e90611fe7565b80601f016020809104026020016040519081016040528092919081815260200182805461089a90611fe7565b80156108e75780601f106108bc576101008083540402835291602001916108e7565b820191906000526020600020905b8154815290600101906020018083116108ca57829003601f168201915b505050505081565b6000805b60038110156109f9576109d8600482600381106109125761091261201b565b01805461091e90611fe7565b80601f016020809104026020016040519081016040528092919081815260200182805461094a90611fe7565b80156109975780601f1061096c57610100808354040283529160200191610997565b820191906000526020600020905b81548152906001019060200180831161097a57829003601f168201915b505050505085858080601f01602080910402602001604051908101604052809392919081815260200183838082843760009201919091525061165d92505050565b156109e75760019150506109ff565b806109f1816120f2565b9150506108f3565b50600090505b92915050565b6000805b600083815260016020526040908190209051610a2890879087906120cc565b90815260405190819003602001902060010154811015610abc57600083815260016020526040908190209051339190610a6490889088906120cc565b90815260200160405180910390206001018281548110610a8657610a8661201b565b6000918252602090912001546001600160a01b031603610aaa576000915050610848565b80610ab4816120f2565b915050610a09565b506001949350505050565b60606003805480602002602001604051908101604052809291908181526020018280548015610b1f57602002820191906000526020600020905b81546001600160a01b03168152600190910190602001808311610b01575b5050505050905090565b60035460609060009067ffffffffffffffff811115610b4a57610b4a611c27565b604051908082528060200260200182016040528015610b8357816020015b610b70611897565b815260200190600190039081610b685790505b50905060005b600354811015610ec95760006002600060038481548110610bac57610bac61201b565b60009182526020808320909101546001600160a01b039081168452838201949094526040928301909120825160a081018452815460ff811615158252610100900490941691840191909152600181015491830191909152600281018054606084019190610c1890611fe7565b80601f0160208091040260200160405190810160405280929190818152602001828054610c4490611fe7565b8015610c915780601f10610c6657610100808354040283529160200191610c91565b820191906000526020600020905b815481529060010190602001808311610c7457829003601f168201915b5050505050815260200160038201548152505090506002600060038481548110610cbd57610cbd61201b565b60009182526020808320909101546001600160a01b03908116845283820194909452604090920181205461010090049092169083015260038054600292919085908110610d0c57610d0c61201b565b60009182526020808320909101546001600160a01b0316835282019290925260400181205460ff161515825260038054600292919085908110610d5157610d5161201b565b60009182526020808320909101546001600160a01b0316835282019290925260409081018220600101549083015260038054600292919085908110610d9857610d9861201b565b60009182526020808320909101546001600160a01b0316835282019290925260400190206002018054610dca90611fe7565b80601f0160208091040260200160405190810160405280929190818152602001828054610df690611fe7565b8015610e435780601f10610e1857610100808354040283529160200191610e43565b820191906000526020600020905b815481529060010190602001808311610e2657829003601f168201915b505050505081606001819052506002600060038481548110610e6757610e6761201b565b60009182526020808320909101546001600160a01b03168352820192909252604001902060030154608082015282518190849084908110610eaa57610eaa61201b565b6020026020010181905250508080610ec1906120f2565b915050610b89565b50919050565b60606000610ede84600161210b565b67ffffffffffffffff811115610ef657610ef6611c27565b604051908082528060200260200182016040528015610f2f57816020015b610f1c6118d1565b815260200190600190039081610f145790505b50905060005b848111611084576000610f4b6103018387612123565b9050610f556118d1565b81516040808301919091526020830151606083015282015160808201526000610f8161013e8589612123565b90506000610f9e6001610f94878b612123565b61013e9190612123565b9050610faa828261165d565b8015610fde5750610fdc82604051806040016040528060098152602001687374616c656d61746560b81b81525061165d565b155b8015611012575061101081604051806040016040528060098152602001687374616c656d61746560b81b81525061165d565b155b15611039576040805180820190915260048152636472617760e01b6020820152835261103d565b8183525b6110478589612123565b6020840152855183908790879081106110625761106261201b565b602002602001018190525050505050808061107c906120f2565b915050610f35565b509392505050565b600260208190526000918252604090912080546001820154928201805460ff8316946101009093046001600160a01b03169391906110c990611fe7565b80601f01602080910402602001604051908101604052809291908181526020018280546110f590611fe7565b80156111425780601f1061111757610100808354040283529160200191611142565b820191906000526020600020905b81548152906001019060200180831161112557829003601f168201915b5050505050908060030154905085565b61115a611950565b611162611950565b6000838152600160205260408120906004016040516111819190612031565b908152602001604051809103902060405180604001604052908160008201548152602001600182018054806020026020016040519081016040528092919081815260200182805480156111fd57602002820191906000526020600020905b81546001600160a01b031681526001909101906020018083116111df575b50505091909252505050815260008381526001602052604090819020905161122790600590612031565b908152602001604051809103902060405180604001604052908160008201548152602001600182018054806020026020016040519081016040528092919081815260200182805480156112a357602002820191906000526020600020905b81546001600160a01b03168152600190910190602001808311611285575b50505091909252505050602080830191909152600084815260019091526040902060046002016040516112d69190612031565b9081526020016040518091039020604051806040016040529081600082015481526020016001820180548060200260200160405190810160405280929190818152602001828054801561135257602002820191906000526020600020905b81546001600160a01b03168152600190910190602001808311611334575b50505091909252505050604082015292915050565b436000541461137557436000555b61137f83836108ef565b61138857600080fd5b611393838383610a05565b61139c57600080fd5b600180600083815260200190815260200160002084846040516113c09291906120cc565b908152602001604051809103902060000160008282546113e0919061210b565b909155505060008181526001602052604090819020905161140490859085906120cc565b908152604080516020928190038301902060019081018054918201815560009081528381209091018054336001600160a01b031990911681179091558152600290925290205460ff1661149457600380546001810182556000919091527fc2575a0e9e593c00f959f8c92f12db2869c3395a3b0502d05e2516446f71f85b0180546001600160a01b031916331790555b336000908152600260208181526040808420815160a081018352815460ff81161515825261010090046001600160a01b03169381019390935260018101549183019190915291820180549192916060840191906114f090611fe7565b80601f016020809104026020016040519081016040528092919081815260200182805461151c90611fe7565b80156115695780601f1061153e57610100808354040283529160200191611569565b820191906000526020600020905b81548152906001019060200180831161154c57829003601f168201915b50505091835250506003919091015460209182015233828201526001825260408083018590528051601f870183900483028101830190915285815291925085908590819084018382808284376000920191909152505050506060820152608081018051600191906115db90839061210b565b9052503360009081526002602081815260409283902084518154838701516001600160a01b031661010002610100600160a81b0319921515929092166001600160a81b0319909116171781559284015160018401556060840151805185949361164993908501920190611971565b506080820151816003015590505050505050565b600081604051602001611670919061213a565b6040516020818303038152906040528051906020012083604051602001611697919061213a565b6040516020818303038152906040528051906020012014905092915050565b6116be611897565b336000908152600260208181526040808420815160a081018352815460ff81161515825261010090046001600160a01b031693810193909352600181015491830191909152918201805491929160608401919061171a90611fe7565b80601f016020809104026020016040519081016040528092919081815260200182805461174690611fe7565b80156117935780601f1061176857610100808354040283529160200191611793565b820191906000526020600020905b81548152906001019060200180831161177657829003601f168201915b50505091835250506003919091015460209182015233600081815260028084526040808320805461010081046001600160a01b03168888015260ff16151587526001810154918701919091529290915291829052018054919250906117f790611fe7565b80601f016020809104026020016040519081016040528092919081815260200182805461182390611fe7565b80156118705780601f1061184557610100808354040283529160200191611870565b820191906000526020600020905b81548152906001019060200180831161185357829003601f168201915b50505050506060820152336000908152600260205260409020600301546080820152919050565b6040518060a0016040528060001515815260200160006001600160a01b031681526020016000815260200160608152602001600081525090565b6040518060a001604052806060815260200160008152602001611907604051806040016040528060008152602001606081525090565b8152602001611929604051806040016040528060008152602001606081525090565b815260200161194b604051806040016040528060008152602001606081525090565b905290565b6040805160a081019091526000606080830191825260808301528190611907565b82805461197d90611fe7565b90600052602060002090601f01602090048101928261199f57600085556119e5565b82601f106119b857805160ff19168380011785556119e5565b828001600101855582156119e5579182015b828111156119e55782518255916020019190600101906119ca565b506119f19291506119f5565b5090565b5b808211156119f157600081556001016119f6565b600060208284031215611a1c57600080fd5b81356001600160a01b038116811461084857600080fd5b60005b83811015611a4e578181015183820152602001611a36565b83811115611a5d576000848401525b50505050565b60008151808452611a7b816020860160208601611a33565b601f01601f19169290920160200192915050565b80511515825260018060a01b036020820151166020830152604081015160408301526000606082015160a06060850152611acc60a0850182611a63565b608093840151949093019390935250919050565b6020815260006108486020830184611a8f565b600060208284031215611b0557600080fd5b5035919050565b6020815260006108486020830184611a63565b60008083601f840112611b3157600080fd5b50813567ffffffffffffffff811115611b4957600080fd5b602083019150836020828501011115611b6157600080fd5b9250929050565b600080600060408486031215611b7d57600080fd5b833567ffffffffffffffff811115611b9457600080fd5b611ba086828701611b1f565b909790965060209590950135949350505050565b600060408301825184526020808401516040828701528281518085526060880191508383019450600092505b80831015611c095784516001600160a01b03168252938301936001929092019190830190611be0565b509695505050505050565b6020815260006108486020830184611bb4565b634e487b7160e01b600052604160045260246000fd5b600082601f830112611c4e57600080fd5b813567ffffffffffffffff80821115611c6957611c69611c27565b604051601f8301601f19908116603f01168101908282118183101715611c9157611c91611c27565b81604052838152866020858801011115611caa57600080fd5b836020870160208301376000602085830101528094505050505092915050565b60008060408385031215611cdd57600080fd5b82359150602083013567ffffffffffffffff811115611cfb57600080fd5b611d0785828601611c3d565b9150509250929050565b60008060208385031215611d2457600080fd5b823567ffffffffffffffff811115611d3b57600080fd5b611d4785828601611b1f565b90969095509350505050565b6020808252825182820181905260009190848201906040850190845b81811015611d945783516001600160a01b031683529284019291840191600101611d6f565b50909695505050505050565b6000602080830181845280855180835260408601915060408160051b870101925083870160005b82811015611df557603f19888603018452611de3858351611a8f565b94509285019290850190600101611dc7565b5092979650505050505050565b60008060408385031215611e1557600080fd5b50508035926020909101359150565b60006020808301818452808551808352604092508286019150828160051b87010184880160005b83811015611edd57603f19898403018552815160a08151818652611e7182870182611a63565b91505088820151898601528782015185820389870152611e918282611bb4565b91505060608083015186830382880152611eab8382611bb4565b9250505060808083015192508582038187015250611ec98183611bb4565b968901969450505090860190600101611e4b565b509098975050505050505050565b851515815260018060a01b038516602082015283604082015260a060608201526000611f1a60a0830185611a63565b90508260808301529695505050505050565b602081526000825160606020840152611f486080840182611bb4565b90506020840151601f1980858403016040860152611f668383611bb4565b9250604086015191508085840301606086015250611f848282611bb4565b95945050505050565b60008060408385031215611fa057600080fd5b823567ffffffffffffffff80821115611fb857600080fd5b611fc486838701611c3d565b93506020850135915080821115611fda57600080fd5b50611d0785828601611c3d565b600181811c90821680611ffb57607f821691505b602082108103610ec957634e487b7160e01b600052602260045260246000fd5b634e487b7160e01b600052603260045260246000fd5b600080835481600182811c91508083168061204d57607f831692505b6020808410820361206c57634e487b7160e01b86526022600452602486fd5b8180156120805760018114612091576120be565b60ff198616895284890196506120be565b60008a81526020902060005b868110156120b65781548b82015290850190830161209d565b505084890196505b509498975050505050505050565b8183823760009101908152919050565b634e487b7160e01b600052601160045260246000fd5b600060018201612104576121046120dc565b5060010190565b6000821982111561211e5761211e6120dc565b500190565b600082821015612135576121356120dc565b500390565b6000825161214c818460208701611a33565b919091019291505056fea264697066735822122017eaf901085a9f30e36a24342cda105fb66e7249a8cd9eed67eea33891c4eed964736f6c634300080d0033",
    "linkReferences": {}
  },
  "methodIdentifiers": {
    "accountStates(address)": "c0b57ffb",
    "allAccountStates()": "a59039e3",
    "calculateBlockResults(uint256)": "331a897d",
    "castVote(string,uint256)": "e3b9e2fa",
    "choiceList(uint256)": "684908bd",
    "compareStringsbyBytes(string,string)": "e9a734ff",
    "getAllAddresses()": "9516a104",
    "historyForRange(uint256,uint256)": "b0ca23ea",
    "myAccountState()": "f377b5ec",
    "singleAccountState(address)": "10e94ab0",
    "totalVotesForBlock(uint256)": "ca8ac8f7",
    "totalVotesForChoice(string,uint256)": "3b895867",
    "validChoice(string)": "91cadabe",
    "validVoter(string,uint256)": "91e706ea",
    "votesPerBlock(uint256,string)": "6b906d44"
  },
  "id": 0
}