{
  "abi": [
    {
      "inputs": [
        {
          "internalType": "uint256",
          "name": "",
          "type": "uint256"
        }
      ],
      "name": "choiceList",
      "outputs": [
        {
          "internalType": "string",
          "name": "",
          "type": "string"
        }
      ],
      "stateMutability": "view",
      "type": "function"
    },
    {
      "inputs": [
        {
          "internalType": "string",
          "name": "s1",
          "type": "string"
        },
        {
          "internalType": "string",
          "name": "s2",
          "type": "string"
        }
      ],
      "name": "compareStringsbyBytes",
      "outputs": [
        {
          "internalType": "bool",
          "name": "",
          "type": "bool"
        }
      ],
      "stateMutability": "pure",
      "type": "function"
    },
    {
      "inputs": [
        {
          "internalType": "string",
          "name": "choice",
          "type": "string"
        }
      ],
      "name": "totalVotesFor",
      "outputs": [
        {
          "internalType": "uint256",
          "name": "",
          "type": "uint256"
        }
      ],
      "stateMutability": "view",
      "type": "function"
    },
    {
      "inputs": [
        {
          "internalType": "string",
          "name": "choice",
          "type": "string"
        }
      ],
      "name": "validChoice",
      "outputs": [
        {
          "internalType": "bool",
          "name": "",
          "type": "bool"
        }
      ],
      "stateMutability": "view",
      "type": "function"
    },
    {
      "inputs": [
        {
          "internalType": "string",
          "name": "choice",
          "type": "string"
        }
      ],
      "name": "voteForChoice",
      "outputs": [],
      "stateMutability": "nonpayable",
      "type": "function"
    },
    {
      "inputs": [
        {
          "internalType": "string",
          "name": "",
          "type": "string"
        }
      ],
      "name": "votesReceived",
      "outputs": [
        {
          "internalType": "address",
          "name": "recipient",
          "type": "address"
        },
        {
          "internalType": "uint256",
          "name": "num_contributions",
          "type": "uint256"
        }
      ],
      "stateMutability": "view",
      "type": "function"
    }
  ],
  "bytecode": {
    "object": "0x600560e081815264626c6f636b60d81b610100526080908152610120918252643830b832b960d91b6101405260a0919091526101a060405260086101609081526773636973736f727360c01b6101805260c052610060906001906003610073565b5034801561006d57600080fd5b506101ec565b82600381019282156100b3579160200282015b828111156100b357825180516100a39184916020909101906100c3565b5091602001919060010190610086565b506100bf929150610143565b5090565b8280546100cf906101b2565b90600052602060002090601f0160209004810192826100f15760008555610137565b82601f1061010a57805160ff1916838001178555610137565b82800160010185558215610137579182015b8281111561013757825182559160200191906001019061011c565b506100bf929150610160565b808211156100bf5760006101578282610175565b50600101610143565b5b808211156100bf5760008155600101610161565b508054610181906101b2565b6000825580601f10610191575050565b601f0160209004906000526020600020908101906101af9190610160565b50565b600181811c908216806101c657607f821691505b6020821081036101e657634e487b7160e01b600052602260045260246000fd5b50919050565b61071f80620001fc6000396000f3fe608060405234801561001057600080fd5b50600436106100625760003560e01c80634a3bf377146100675780636760b9541461008d578063684908bd146100a25780638d4b44d9146100c257806391cadabe1461011f578063e9a734ff14610142575b600080fd5b61007a6100753660046103f4565b610155565b6040519081526020015b60405180910390f35b6100a061009b3660046103f4565b610197565b005b6100b56100b0366004610466565b6101e7565b60405161008491906104af565b6101006100d0366004610585565b8051602081830181018051600082529282019190930120915280546001909101546001600160a01b039091169082565b604080516001600160a01b039093168352602083019190915201610084565b61013261012d3660046103f4565b610287565b6040519015158152602001610084565b6101326101503660046105c2565b61039b565b60006101618383610287565b61016a57600080fd5b6000838360405161017c929190610626565b90815260200160405180910390206001015490505b92915050565b6101a18282610287565b6101aa57600080fd5b6001600083836040516101be929190610626565b908152602001604051809103902060010160008282546101de919061064c565b90915550505050565b600181600381106101f757600080fd5b01805490915061020690610664565b80601f016020809104026020016040519081016040528092919081815260200182805461023290610664565b801561027f5780601f106102545761010080835404028352916020019161027f565b820191906000526020600020905b81548152906001019060200180831161026257829003601f168201915b505050505081565b6000805b600381101561039157610370600182600381106102aa576102aa61069e565b0180546102b690610664565b80601f01602080910402602001604051908101604052809291908181526020018280546102e290610664565b801561032f5780601f106103045761010080835404028352916020019161032f565b820191906000526020600020905b81548152906001019060200180831161031257829003601f168201915b505050505085858080601f01602080910402602001604051908101604052809392919081815260200183838082843760009201919091525061039b92505050565b1561037f576001915050610191565b80610389816106b4565b91505061028b565b5060009392505050565b6000816040516020016103ae91906106cd565b60405160208183030381529060405280519060200120836040516020016103d591906106cd565b6040516020818303038152906040528051906020012014905092915050565b6000806020838503121561040757600080fd5b823567ffffffffffffffff8082111561041f57600080fd5b818501915085601f83011261043357600080fd5b81358181111561044257600080fd5b86602082850101111561045457600080fd5b60209290920196919550909350505050565b60006020828403121561047857600080fd5b5035919050565b60005b8381101561049a578181015183820152602001610482565b838111156104a9576000848401525b50505050565b60208152600082518060208401526104ce81604085016020870161047f565b601f01601f19169190910160400192915050565b634e487b7160e01b600052604160045260246000fd5b600082601f83011261050957600080fd5b813567ffffffffffffffff80821115610524576105246104e2565b604051601f8301601f19908116603f0116810190828211818310171561054c5761054c6104e2565b8160405283815286602085880101111561056557600080fd5b836020870160208301376000602085830101528094505050505092915050565b60006020828403121561059757600080fd5b813567ffffffffffffffff8111156105ae57600080fd5b6105ba848285016104f8565b949350505050565b600080604083850312156105d557600080fd5b823567ffffffffffffffff808211156105ed57600080fd5b6105f9868387016104f8565b9350602085013591508082111561060f57600080fd5b5061061c858286016104f8565b9150509250929050565b8183823760009101908152919050565b634e487b7160e01b600052601160045260246000fd5b6000821982111561065f5761065f610636565b500190565b600181811c9082168061067857607f821691505b60208210810361069857634e487b7160e01b600052602260045260246000fd5b50919050565b634e487b7160e01b600052603260045260246000fd5b6000600182016106c6576106c6610636565b5060010190565b600082516106df81846020870161047f565b919091019291505056fea2646970667358221220ff922bd4a26c1d7ce87c895dbf195d662622647c48a757457d88fd580187abee64736f6c634300080d0033",
    "linkReferences": {}
  }
}