{
  "abi": [
    {
      "inputs": [
        {
          "internalType": "string",
          "name": "choice",
          "type": "string"
        },
        {
          "internalType": "string",
          "name": "persona",
          "type": "string"
        },
        {
          "internalType": "uint256",
          "name": "block_number",
          "type": "uint256"
        }
      ],
      "name": "castVote",
      "outputs": [],
      "stateMutability": "nonpayable",
      "type": "function"
    },
    {
      "inputs": [
        {
          "internalType": "uint256",
          "name": "",
          "type": "uint256"
        }
      ],
      "name": "choiceList",
      "outputs": [
        {
          "internalType": "string",
          "name": "",
          "type": "string"
        }
      ],
      "stateMutability": "view",
      "type": "function"
    },
    {
      "inputs": [
        {
          "internalType": "string",
          "name": "s1",
          "type": "string"
        },
        {
          "internalType": "string",
          "name": "s2",
          "type": "string"
        }
      ],
      "name": "compareStringsbyBytes",
      "outputs": [
        {
          "internalType": "bool",
          "name": "",
          "type": "bool"
        }
      ],
      "stateMutability": "pure",
      "type": "function"
    },
    {
      "inputs": [],
      "name": "historyForLast256Blocks",
      "outputs": [
        {
          "components": [
            {
              "internalType": "string",
              "name": "result",
              "type": "string"
            },
            {
              "components": [
                {
                  "internalType": "uint256",
                  "name": "votes",
                  "type": "uint256"
                },
                {
                  "components": [
                    {
                      "internalType": "string",
                      "name": "persona",
                      "type": "string"
                    },
                    {
                      "internalType": "address",
                      "name": "sender",
                      "type": "address"
                    }
                  ],
                  "internalType": "struct BlockPaperScissors.Vote[]",
                  "name": "voters",
                  "type": "tuple[]"
                }
              ],
              "internalType": "struct BlockPaperScissors.Votes",
              "name": "blockVotes",
              "type": "tuple"
            },
            {
              "components": [
                {
                  "internalType": "uint256",
                  "name": "votes",
                  "type": "uint256"
                },
                {
                  "components": [
                    {
                      "internalType": "string",
                      "name": "persona",
                      "type": "string"
                    },
                    {
                      "internalType": "address",
                      "name": "sender",
                      "type": "address"
                    }
                  ],
                  "internalType": "struct BlockPaperScissors.Vote[]",
                  "name": "voters",
                  "type": "tuple[]"
                }
              ],
              "internalType": "struct BlockPaperScissors.Votes",
              "name": "paperVotes",
              "type": "tuple"
            },
            {
              "components": [
                {
                  "internalType": "uint256",
                  "name": "votes",
                  "type": "uint256"
                },
                {
                  "components": [
                    {
                      "internalType": "string",
                      "name": "persona",
                      "type": "string"
                    },
                    {
                      "internalType": "address",
                      "name": "sender",
                      "type": "address"
                    }
                  ],
                  "internalType": "struct BlockPaperScissors.Vote[]",
                  "name": "voters",
                  "type": "tuple[]"
                }
              ],
              "internalType": "struct BlockPaperScissors.Votes",
              "name": "scissorsVotes",
              "type": "tuple"
            }
          ],
          "internalType": "struct BlockPaperScissors.VotesWithResultsInBlock[]",
          "name": "",
          "type": "tuple[]"
        }
      ],
      "stateMutability": "view",
      "type": "function"
    },
    {
      "inputs": [
        {
          "internalType": "uint256",
          "name": "",
          "type": "uint256"
        }
      ],
      "name": "personaList",
      "outputs": [
        {
          "internalType": "string",
          "name": "",
          "type": "string"
        }
      ],
      "stateMutability": "view",
      "type": "function"
    },
    {
      "inputs": [
        {
          "internalType": "uint256",
          "name": "block_number",
          "type": "uint256"
        }
      ],
      "name": "totalVotesForBlock",
      "outputs": [
        {
          "components": [
            {
              "components": [
                {
                  "internalType": "uint256",
                  "name": "votes",
                  "type": "uint256"
                },
                {
                  "components": [
                    {
                      "internalType": "string",
                      "name": "persona",
                      "type": "string"
                    },
                    {
                      "internalType": "address",
                      "name": "sender",
                      "type": "address"
                    }
                  ],
                  "internalType": "struct BlockPaperScissors.Vote[]",
                  "name": "voters",
                  "type": "tuple[]"
                }
              ],
              "internalType": "struct BlockPaperScissors.Votes",
              "name": "blockVotes",
              "type": "tuple"
            },
            {
              "components": [
                {
                  "internalType": "uint256",
                  "name": "votes",
                  "type": "uint256"
                },
                {
                  "components": [
                    {
                      "internalType": "string",
                      "name": "persona",
                      "type": "string"
                    },
                    {
                      "internalType": "address",
                      "name": "sender",
                      "type": "address"
                    }
                  ],
                  "internalType": "struct BlockPaperScissors.Vote[]",
                  "name": "voters",
                  "type": "tuple[]"
                }
              ],
              "internalType": "struct BlockPaperScissors.Votes",
              "name": "paperVotes",
              "type": "tuple"
            },
            {
              "components": [
                {
                  "internalType": "uint256",
                  "name": "votes",
                  "type": "uint256"
                },
                {
                  "components": [
                    {
                      "internalType": "string",
                      "name": "persona",
                      "type": "string"
                    },
                    {
                      "internalType": "address",
                      "name": "sender",
                      "type": "address"
                    }
                  ],
                  "internalType": "struct BlockPaperScissors.Vote[]",
                  "name": "voters",
                  "type": "tuple[]"
                }
              ],
              "internalType": "struct BlockPaperScissors.Votes",
              "name": "scissorsVotes",
              "type": "tuple"
            }
          ],
          "internalType": "struct BlockPaperScissors.VotesInBlock",
          "name": "",
          "type": "tuple"
        }
      ],
      "stateMutability": "view",
      "type": "function"
    },
    {
      "inputs": [
        {
          "internalType": "string",
          "name": "choice",
          "type": "string"
        },
        {
          "internalType": "uint256",
          "name": "block_number",
          "type": "uint256"
        }
      ],
      "name": "totalVotesForChoice",
      "outputs": [
        {
          "components": [
            {
              "internalType": "uint256",
              "name": "votes",
              "type": "uint256"
            },
            {
              "components": [
                {
                  "internalType": "string",
                  "name": "persona",
                  "type": "string"
                },
                {
                  "internalType": "address",
                  "name": "sender",
                  "type": "address"
                }
              ],
              "internalType": "struct BlockPaperScissors.Vote[]",
              "name": "voters",
              "type": "tuple[]"
            }
          ],
          "internalType": "struct BlockPaperScissors.Votes",
          "name": "",
          "type": "tuple"
        }
      ],
      "stateMutability": "view",
      "type": "function"
    },
    {
      "inputs": [
        {
          "internalType": "string",
          "name": "choice",
          "type": "string"
        }
      ],
      "name": "validChoice",
      "outputs": [
        {
          "internalType": "bool",
          "name": "",
          "type": "bool"
        }
      ],
      "stateMutability": "view",
      "type": "function"
    },
    {
      "inputs": [
        {
          "internalType": "string",
          "name": "persona",
          "type": "string"
        }
      ],
      "name": "validPersona",
      "outputs": [
        {
          "internalType": "bool",
          "name": "",
          "type": "bool"
        }
      ],
      "stateMutability": "view",
      "type": "function"
    },
    {
      "inputs": [
        {
          "internalType": "string",
          "name": "choice",
          "type": "string"
        },
        {
          "internalType": "uint256",
          "name": "block_number",
          "type": "uint256"
        }
      ],
      "name": "validVoter",
      "outputs": [
        {
          "internalType": "bool",
          "name": "",
          "type": "bool"
        }
      ],
      "stateMutability": "view",
      "type": "function"
    },
    {
      "inputs": [
        {
          "internalType": "uint256",
          "name": "",
          "type": "uint256"
        },
        {
          "internalType": "string",
          "name": "",
          "type": "string"
        }
      ],
      "name": "votesPerBlock",
      "outputs": [
        {
          "internalType": "uint256",
          "name": "votes",
          "type": "uint256"
        }
      ],
      "stateMutability": "view",
      "type": "function"
    }
  ],
  "bytecode": {
    "object": "0x600560e081815264626c6f636b60d81b610100526080908152610120918252643830b832b960d91b6101405260a0919091526101a060405260086101609081526773636973736f727360c01b6101805260c0526200006290600290600362000104565b50604051806060016040528060405180604001604052806007815260200166313ab4b63232b960c91b81525081526020016040518060400160405280600a81526020016939b832b1bab630ba37b960b11b815250815260200160405180604001604052806006815260200165185c9d1a5cdd60d21b8152508152506005906003620000ef92919062000104565b50348015620000fd57600080fd5b506200029c565b826003810192821562000149579160200282015b82811115620001495782518051620001389184916020909101906200015b565b509160200191906001019062000118565b5062000157929150620001e6565b5090565b828054620001699062000260565b90600052602060002090601f0160209004810192826200018d5760008555620001d8565b82601f10620001a857805160ff1916838001178555620001d8565b82800160010185558215620001d8579182015b82811115620001d8578251825591602001919060010190620001bb565b506200015792915062000207565b8082111562000157576000620001fd82826200021e565b50600101620001e6565b5b8082111562000157576000815560010162000208565b5080546200022c9062000260565b6000825580601f106200023d575050565b601f0160209004906000526020600020908101906200025d919062000207565b50565b600181811c908216806200027557607f821691505b6020821081036200029657634e487b7160e01b600052602260045260246000fd5b50919050565b61171580620002ac6000396000f3fe608060405234801561001057600080fd5b50600436106100a95760003560e01c806391cadabe1161007157806391cadabe1461016957806391e706ea1461018c5780639a0652d61461019f578063ca8ac8f7146101b2578063dcaad32f146101d2578063e9a734ff146101e757600080fd5b80633b895867146100ae57806343902479146100d7578063684908bd146100ec5780636b906d441461010c5780637151396514610156575b600080fd5b6100c16100bc3660046110e5565b6101fa565b6040516100ce919061121a565b60405180910390f35b6100df610372565b6040516100ce919061122d565b6100ff6100fa3660046112e9565b610494565b6040516100ce9190611302565b61014861011a3660046113b8565b6001602090815260009283526040909220815180830184018051928152908401929093019190912091525481565b6040519081526020016100ce565b6100ff6101643660046112e9565b610534565b61017c6101773660046113ff565b610544565b60405190151581526020016100ce565b61017c61019a3660046110e5565b61065a565b61017c6101ad3660046113ff565b610724565b6101c56101c03660046112e9565b610768565b6040516100ce9190611441565b6101e56101e03660046114a2565b610b5c565b005b61017c6101f5366004611516565b610cc0565b6040805180820190915260008152606060208201526102198484610544565b61022257600080fd5b6000828152600160205260409081902090516102419086908690611570565b90815260200160405180910390206040518060400160405290816000820154815260200160018201805480602002602001604051908101604052809291908181526020016000905b8282101561036057838290600052602060002090600202016040518060400160405290816000820180546102bc90611580565b80601f01602080910402602001604051908101604052809291908181526020018280546102e890611580565b80156103355780601f1061030a57610100808354040283529160200191610335565b820191906000526020600020905b81548152906001019060200180831161031857829003601f168201915b50505091835250506001918201546001600160a01b0316602091820152918352929092019101610289565b505050508152505090505b9392505050565b60408051610100808252612020820190925260609160009190816020015b610398610f6a565b81526020019060019003908161039057905050905060005b610100811161048e5760006103c86101c083436115ca565b90506103d2610f6a565b81516020808301919091528201516040808301919091528201516060820152600061040561040085436115ca565b610d19565b90506000610422600161041887436115ca565b61040091906115ca565b905061042e8282610cc0565b15610455576040805180820190915260048152636472617760e01b60208201528352610459565b8183525b8286868151811061046c5761046c6115e1565b6020026020010181905250505050508080610486906115f7565b9150506103b0565b50919050565b600281600381106104a457600080fd5b0180549091506104b390611580565b80601f01602080910402602001604051908101604052809291908181526020018280546104df90611580565b801561052c5780601f106105015761010080835404028352916020019161052c565b820191906000526020600020905b81548152906001019060200180831161050f57829003601f168201915b505050505081565b600581600381106104a457600080fd5b6000805b600381101561064e5761062d60028260038110610567576105676115e1565b01805461057390611580565b80601f016020809104026020016040519081016040528092919081815260200182805461059f90611580565b80156105ec5780601f106105c1576101008083540402835291602001916105ec565b820191906000526020600020905b8154815290600101906020018083116105cf57829003601f168201915b505050505085858080601f016020809104026020016040519081016040528093929190818152602001838380828437600092019190915250610cc092505050565b1561063c576001915050610654565b80610646816115f7565b915050610548565b50600090505b92915050565b6000805b60008381526001602052604090819020905161067d9087908790611570565b90815260405190819003602001902060010154811015610719576000838152600160205260409081902090513391906106b99088908890611570565b908152602001604051809103902060010182815481106106db576106db6115e1565b60009182526020909120600160029092020101546001600160a01b03160361070757600091505061036b565b80610711816115f7565b91505061065e565b506001949350505050565b6000805b600381101561064e5761074760058260038110610567576105676115e1565b15610756576001915050610654565b80610760816115f7565b915050610728565b610770610fe2565b610778610fe2565b6000838152600160205260408120906002016040516107979190611610565b90815260200160405180910390206040518060400160405290816000820154815260200160018201805480602002602001604051908101604052809291908181526020016000905b828210156108b6578382906000526020600020906002020160405180604001604052908160008201805461081290611580565b80601f016020809104026020016040519081016040528092919081815260200182805461083e90611580565b801561088b5780601f106108605761010080835404028352916020019161088b565b820191906000526020600020905b81548152906001019060200180831161086e57829003601f168201915b50505091835250506001918201546001600160a01b03166020918201529183529290920191016107df565b5050509152505081526000838152600160205260409081902090516108dd90600390611610565b90815260200160405180910390206040518060400160405290816000820154815260200160018201805480602002602001604051908101604052809291908181526020016000905b828210156109fc578382906000526020600020906002020160405180604001604052908160008201805461095890611580565b80601f016020809104026020016040519081016040528092919081815260200182805461098490611580565b80156109d15780601f106109a6576101008083540402835291602001916109d1565b820191906000526020600020905b8154815290600101906020018083116109b457829003601f168201915b50505091835250506001918201546001600160a01b0316602091820152918352929092019101610925565b50505091525050602080830191909152600084815260019091526040902060028001604051610a2b9190611610565b90815260200160405180910390206040518060400160405290816000820154815260200160018201805480602002602001604051908101604052809291908181526020016000905b82821015610b4a5783829060005260206000209060020201604051806040016040529081600082018054610aa690611580565b80601f0160208091040260200160405190810160405280929190818152602001828054610ad290611580565b8015610b1f5780601f10610af457610100808354040283529160200191610b1f565b820191906000526020600020905b815481529060010190602001808311610b0257829003601f168201915b50505091835250506001918201546001600160a01b0316602091820152918352929092019101610a73565b50505091525050604082015292915050565b4360005414610b6a57436000555b610b748585610544565b610b7d57600080fd5b610b878383610724565b610b9057600080fd5b610b9b85858361065a565b610ba457600080fd5b60018060008381526020019081526020016000208686604051610bc8929190611570565b90815260200160405180910390206000016000828254610be891906116ab565b9091555050600081815260016020526040908190209051610c0c9087908790611570565b9081526020016040518091039020600101604051806040016040528085858080601f016020809104026020016040519081016040528093929190818152602001838380828437600092018290525093855250503360209384015250835460018101855593815281902082518051939460020290910192610c8f9284920190611003565b5060209190910151600190910180546001600160a01b0319166001600160a01b039092169190911790555050505050565b600081604051602001610cd391906116c3565b6040516020818303038152906040528051906020012083604051602001610cfa91906116c3565b6040516020818303038152906040528051906020012014905092915050565b6000818152600160205260408120606091829160028201604051610d3d9190611610565b90815260200160405180910390206000015490506000600160008681526020019081526020016000206002600160038110610d7a57610d7a6115e1565b01604051610d889190611610565b90815260408051602092819003830181205460008981526001909452918320919350610db690600490611610565b9081526040519081900360200190205490508183118015610dd657508083115b15610e7157600260005b018054610dec90611580565b80601f0160208091040260200160405190810160405280929190818152602001828054610e1890611580565b8015610e655780601f10610e3a57610100808354040283529160200191610e65565b820191906000526020600020905b815481529060010190602001808311610e4857829003601f168201915b50505050509350610f60565b8282118015610e7f57508082115b15610e8d5760026001610de0565b81831480610e9a57508083145b80610ea457508082145b15610ed257604051806040016040528060098152602001687374616c656d61746560b81b8152509350610f60565b60048054610edf90611580565b80601f0160208091040260200160405190810160405280929190818152602001828054610f0b90611580565b8015610f585780601f10610f2d57610100808354040283529160200191610f58565b820191906000526020600020905b815481529060010190602001808311610f3b57829003601f168201915b505050505093505b5091949350505050565b604051806080016040528060608152602001610f99604051806040016040528060008152602001606081525090565b8152602001610fbb604051806040016040528060008152602001606081525090565b8152602001610fdd604051806040016040528060008152602001606081525090565b905290565b6040805160a081019091526000606080830191825260808301528190610f99565b82805461100f90611580565b90600052602060002090601f0160209004810192826110315760008555611077565b82601f1061104a57805160ff1916838001178555611077565b82800160010185558215611077579182015b8281111561107757825182559160200191906001019061105c565b50611083929150611087565b5090565b5b808211156110835760008155600101611088565b60008083601f8401126110ae57600080fd5b50813567ffffffffffffffff8111156110c657600080fd5b6020830191508360208285010111156110de57600080fd5b9250929050565b6000806000604084860312156110fa57600080fd5b833567ffffffffffffffff81111561111157600080fd5b61111d8682870161109c565b909790965060209590950135949350505050565b60005b8381101561114c578181015183820152602001611134565b8381111561115b576000848401525b50505050565b60008151808452611179816020860160208601611131565b601f01601f19169290920160200192915050565b6000604080840183518552602080850151838288015282815180855260608901915060608160051b8a01019450838301925060005b8181101561120c57898603605f19018352835180518888526111e689890182611161565b918701516001600160a01b031697870197909752955092840192918401916001016111c2565b509398975050505050505050565b60208152600061036b602083018461118d565b60006020808301818452808551808352604092508286019150828160051b87010184880160005b838110156112db57603f1989840301855281516080815181865261127a82870182611161565b915050888201518582038a870152611292828261118d565b91505087820151858203898701526112aa828261118d565b915050606080830151925085820381870152506112c7818361118d565b968901969450505090860190600101611254565b509098975050505050505050565b6000602082840312156112fb57600080fd5b5035919050565b60208152600061036b6020830184611161565b634e487b7160e01b600052604160045260246000fd5b600082601f83011261133c57600080fd5b813567ffffffffffffffff8082111561135757611357611315565b604051601f8301601f19908116603f0116810190828211818310171561137f5761137f611315565b8160405283815286602085880101111561139857600080fd5b836020870160208301376000602085830101528094505050505092915050565b600080604083850312156113cb57600080fd5b82359150602083013567ffffffffffffffff8111156113e957600080fd5b6113f58582860161132b565b9150509250929050565b6000806020838503121561141257600080fd5b823567ffffffffffffffff81111561142957600080fd5b6114358582860161109c565b90969095509350505050565b60208152600082516060602084015261145d608084018261118d565b90506020840151601f198085840301604086015261147b838361118d565b9250604086015191508085840301606086015250611499828261118d565b95945050505050565b6000806000806000606086880312156114ba57600080fd5b853567ffffffffffffffff808211156114d257600080fd5b6114de89838a0161109c565b909750955060208801359150808211156114f757600080fd5b506115048882890161109c565b96999598509660400135949350505050565b6000806040838503121561152957600080fd5b823567ffffffffffffffff8082111561154157600080fd5b61154d8683870161132b565b9350602085013591508082111561156357600080fd5b506113f58582860161132b565b8183823760009101908152919050565b600181811c9082168061159457607f821691505b60208210810361048e57634e487b7160e01b600052602260045260246000fd5b634e487b7160e01b600052601160045260246000fd5b6000828210156115dc576115dc6115b4565b500390565b634e487b7160e01b600052603260045260246000fd5b600060018201611609576116096115b4565b5060010190565b600080835481600182811c91508083168061162c57607f831692505b6020808410820361164b57634e487b7160e01b86526022600452602486fd5b81801561165f57600181146116705761169d565b60ff1986168952848901965061169d565b60008a81526020902060005b868110156116955781548b82015290850190830161167c565b505084890196505b509498975050505050505050565b600082198211156116be576116be6115b4565b500190565b600082516116d5818460208701611131565b919091019291505056fea26469706673582212207e922c3aa4ddcf6f029eb111962affbef8f1a10af3852160ac467ee846a037ef64736f6c634300080d0033",
    "linkReferences": {}
  }
}