{
  "abi": [
    {
      "inputs": [
        {
          "internalType": "uint256",
          "name": "",
          "type": "uint256"
        }
      ],
      "name": "allUsers",
      "outputs": [
        {
          "internalType": "address",
          "name": "",
          "type": "address"
        }
      ],
      "stateMutability": "view",
      "type": "function"
    },
    {
      "inputs": [
        {
          "internalType": "uint256",
          "name": "",
          "type": "uint256"
        }
      ],
      "name": "blockResults",
      "outputs": [
        {
          "internalType": "uint256",
          "name": "blockHeight",
          "type": "uint256"
        },
        {
          "internalType": "enum BlockPaperScissors.Move",
          "name": "winningMove",
          "type": "uint8"
        },
        {
          "internalType": "uint256",
          "name": "blockVotes",
          "type": "uint256"
        },
        {
          "internalType": "uint256",
          "name": "paperVotes",
          "type": "uint256"
        },
        {
          "internalType": "uint256",
          "name": "scissorsVotes",
          "type": "uint256"
        },
        {
          "internalType": "bool",
          "name": "isStalemate",
          "type": "bool"
        },
        {
          "internalType": "bool",
          "name": "isDraw",
          "type": "bool"
        },
        {
          "internalType": "enum BlockPaperScissors.Move",
          "name": "previousWinningMove",
          "type": "uint8"
        }
      ],
      "stateMutability": "view",
      "type": "function"
    },
    {
      "inputs": [
        {
          "internalType": "enum BlockPaperScissors.Move",
          "name": "move",
          "type": "uint8"
        },
        {
          "internalType": "uint256",
          "name": "blockHeight",
          "type": "uint256"
        }
      ],
      "name": "castVote",
      "outputs": [],
      "stateMutability": "nonpayable",
      "type": "function"
    },
    {
      "inputs": [],
      "name": "getAllStreaks",
      "outputs": [
        {
          "components": [
            {
              "internalType": "uint256",
              "name": "startBlockHeight",
              "type": "uint256"
            },
            {
              "internalType": "uint256",
              "name": "endBlockHeight",
              "type": "uint256"
            },
            {
              "internalType": "uint256",
              "name": "length",
              "type": "uint256"
            },
            {
              "internalType": "enum BlockPaperScissors.Move",
              "name": "lastWinningMove",
              "type": "uint8"
            }
          ],
          "internalType": "struct BlockPaperScissors.Streak[]",
          "name": "",
          "type": "tuple[]"
        }
      ],
      "stateMutability": "view",
      "type": "function"
    },
    {
      "inputs": [],
      "name": "getAllUsers",
      "outputs": [
        {
          "components": [
            {
              "internalType": "address",
              "name": "accountAddress",
              "type": "address"
            },
            {
              "internalType": "enum BlockPaperScissors.Move",
              "name": "lastMove",
              "type": "uint8"
            },
            {
              "internalType": "uint256",
              "name": "totalMoves",
              "type": "uint256"
            },
            {
              "internalType": "uint256",
              "name": "lastMoveBlockHeight",
              "type": "uint256"
            }
          ],
          "internalType": "struct BlockPaperScissors.User[]",
          "name": "",
          "type": "tuple[]"
        }
      ],
      "stateMutability": "view",
      "type": "function"
    },
    {
      "inputs": [
        {
          "internalType": "uint256",
          "name": "count",
          "type": "uint256"
        }
      ],
      "name": "getResultsOfPreviousBlocks",
      "outputs": [
        {
          "components": [
            {
              "internalType": "uint256",
              "name": "blockHeight",
              "type": "uint256"
            },
            {
              "internalType": "enum BlockPaperScissors.Move",
              "name": "winningMove",
              "type": "uint8"
            },
            {
              "internalType": "uint256",
              "name": "blockVotes",
              "type": "uint256"
            },
            {
              "internalType": "uint256",
              "name": "paperVotes",
              "type": "uint256"
            },
            {
              "internalType": "uint256",
              "name": "scissorsVotes",
              "type": "uint256"
            },
            {
              "internalType": "address[]",
              "name": "blockVoters",
              "type": "address[]"
            },
            {
              "internalType": "address[]",
              "name": "paperVoters",
              "type": "address[]"
            },
            {
              "internalType": "address[]",
              "name": "scissorsVoters",
              "type": "address[]"
            },
            {
              "internalType": "bool",
              "name": "isStalemate",
              "type": "bool"
            },
            {
              "internalType": "bool",
              "name": "isDraw",
              "type": "bool"
            },
            {
              "internalType": "enum BlockPaperScissors.Move",
              "name": "previousWinningMove",
              "type": "uint8"
            }
          ],
          "internalType": "struct BlockPaperScissors.BlockResult[]",
          "name": "",
          "type": "tuple[]"
        }
      ],
      "stateMutability": "view",
      "type": "function"
    },
    {
      "inputs": [
        {
          "internalType": "uint256",
          "name": "count",
          "type": "uint256"
        }
      ],
      "name": "getTopStreaks",
      "outputs": [
        {
          "components": [
            {
              "internalType": "uint256",
              "name": "startBlockHeight",
              "type": "uint256"
            },
            {
              "internalType": "uint256",
              "name": "endBlockHeight",
              "type": "uint256"
            },
            {
              "internalType": "uint256",
              "name": "length",
              "type": "uint256"
            },
            {
              "internalType": "enum BlockPaperScissors.Move",
              "name": "lastWinningMove",
              "type": "uint8"
            }
          ],
          "internalType": "struct BlockPaperScissors.Streak[]",
          "name": "",
          "type": "tuple[]"
        }
      ],
      "stateMutability": "view",
      "type": "function"
    },
    {
      "inputs": [
        {
          "internalType": "address",
          "name": "userAddress",
          "type": "address"
        }
      ],
      "name": "getUserByAddress",
      "outputs": [
        {
          "components": [
            {
              "internalType": "address",
              "name": "accountAddress",
              "type": "address"
            },
            {
              "internalType": "enum BlockPaperScissors.Move",
              "name": "lastMove",
              "type": "uint8"
            },
            {
              "internalType": "uint256",
              "name": "totalMoves",
              "type": "uint256"
            },
            {
              "internalType": "uint256",
              "name": "lastMoveBlockHeight",
              "type": "uint256"
            }
          ],
          "internalType": "struct BlockPaperScissors.User",
          "name": "",
          "type": "tuple"
        }
      ],
      "stateMutability": "view",
      "type": "function"
    },
    {
      "inputs": [],
      "name": "lastWinningMove",
      "outputs": [
        {
          "internalType": "enum BlockPaperScissors.Move",
          "name": "",
          "type": "uint8"
        }
      ],
      "stateMutability": "view",
      "type": "function"
    },
    {
      "inputs": [],
      "name": "lastWinningMoveBlockHeight",
      "outputs": [
        {
          "internalType": "uint256",
          "name": "",
          "type": "uint256"
        }
      ],
      "stateMutability": "view",
      "type": "function"
    },
    {
      "inputs": [
        {
          "internalType": "address",
          "name": "",
          "type": "address"
        }
      ],
      "name": "users",
      "outputs": [
        {
          "internalType": "address",
          "name": "accountAddress",
          "type": "address"
        },
        {
          "internalType": "enum BlockPaperScissors.Move",
          "name": "lastMove",
          "type": "uint8"
        },
        {
          "internalType": "uint256",
          "name": "totalMoves",
          "type": "uint256"
        },
        {
          "internalType": "uint256",
          "name": "lastMoveBlockHeight",
          "type": "uint256"
        }
      ],
      "stateMutability": "view",
      "type": "function"
    },
    {
      "inputs": [
        {
          "internalType": "uint256",
          "name": "",
          "type": "uint256"
        }
      ],
      "name": "winningStreaks",
      "outputs": [
        {
          "internalType": "uint256",
          "name": "startBlockHeight",
          "type": "uint256"
        },
        {
          "internalType": "uint256",
          "name": "endBlockHeight",
          "type": "uint256"
        },
        {
          "internalType": "uint256",
          "name": "length",
          "type": "uint256"
        },
        {
          "internalType": "enum BlockPaperScissors.Move",
          "name": "lastWinningMove",
          "type": "uint8"
        }
      ],
      "stateMutability": "view",
      "type": "function"
    }
  ],
  "bytecode": {
    "object": "0x608060405234801561001057600080fd5b50611c9e806100206000396000f3fe608060405234801561001057600080fd5b50600436106100b45760003560e01c8063a356f9e411610071578063a356f9e4146101d6578063a87430ba146101ed578063d464d60d14610242578063d8c8ec5e1461025c578063e2842d791461026f578063f9135be91461028457600080fd5b80630888d514146100b95780632465170b1461013357806369c212f61461015357806373a6a35b1461017357806375f61f1914610196578063a2bdedf4146101ab575b600080fd5b6101166100c736600461180f565b600060208190529081526040902080546001820154600283015460038401546004850154600890950154939460ff93841694929391929091818116916101008104821691620100009091041688565b60405161012a989796959493929190611860565b60405180910390f35b61014661014136600461180f565b610299565b60405161012a91906118f5565b610166610161366004611a0e565b6105c0565b60405161012a9190611a74565b61018661018136600461180f565b610669565b60405161012a9493929190611a88565b61019e6106a6565b60405161012a9190611ab3565b6101be6101b936600461180f565b61075c565b6040516001600160a01b03909116815260200161012a565b6101df60045481565b60405190815260200161012a565b6102326101fb366004611a0e565b60016020819052600091825260409091208054918101546002909101546001600160a01b03831692600160a01b900460ff16919084565b60405161012a9493929190611b23565b60055461024f9060ff1681565b60405161012a9190611b52565b61019e61026a36600461180f565b610786565b610277610ac9565b60405161012a9190611b60565b610297610292366004611bae565b610c29565b005b60606004548211156103005760405162461bcd60e51b815260206004820152602560248201527f436f756e74206578636565647320617661696c61626c6520626c6f636b20726560448201526473756c747360d81b60648201526084015b60405180910390fd5b60008267ffffffffffffffff81111561031b5761031b611bde565b60405190808252806020026020018201604052801561035457816020015b6103416116f3565b8152602001906001900390816103395790505b50905060005b838110156105b95760008061036f8343611c0a565b815260200190815260200160002060405180610160016040529081600082015481526020016001820160009054906101000a900460ff1660058111156103b7576103b7611828565b60058111156103c8576103c8611828565b81526020016002820154815260200160038201548152602001600482015481526020016005820180548060200260200160405190810160405280929190818152602001828054801561044357602002820191906000526020600020905b81546001600160a01b03168152600190910190602001808311610425575b50505050508152602001600682018054806020026020016040519081016040528092919081815260200182805480156104a557602002820191906000526020600020905b81546001600160a01b03168152600190910190602001808311610487575b505050505081526020016007820180548060200260200160405190810160405280929190818152602001828054801561050757602002820191906000526020600020905b81546001600160a01b031681526001909101906020018083116104e9575b5050509183525050600882015460ff8082161515602084015261010082048116151560408401526060909201916201000090910416600581111561054d5761054d611828565b600581111561055e5761055e611828565b8152505082828151811061057457610574611c21565b60209081029190910101526105898143611c0a565b82828151811061059b5761059b611c21565b602090810291909101015152806105b181611c37565b91505061035a565b5092915050565b6105ec604080516080810190915260008082526020820190815260200160008152602001600081525090565b6001600160a01b0382811660009081526001602090815260409182902082516080810190935280549384168352919290830190600160a01b900460ff16600581111561063a5761063a611828565b600581111561064b5761064b611828565b81526001820154602082015260029091015460409091015292915050565b6002818154811061067957600080fd5b60009182526020909120600490910201805460018201546002830154600390930154919350919060ff1684565b60606002805480602002602001604051908101604052809291908181526020016000905b8282101561075357838290600052602060002090600402016040518060800160405290816000820154815260200160018201548152602001600282015481526020016003820160009054906101000a900460ff16600581111561072f5761072f611828565b600581111561074057610740611828565b81525050815260200190600101906106ca565b50505050905090565b6003818154811061076c57600080fd5b6000918252602090912001546001600160a01b0316905081565b6060600082116107c85760405162461bcd60e51b815260206004820152600d60248201526c125b9d985b1a590818dbdd5b9d609a1b60448201526064016102f7565b60025460009083116107da57826107de565b6002545b905060006002805480602002602001604051908101604052809291908181526020016000905b8282101561088d57838290600052602060002090600402016040518060800160405290816000820154815260200160018201548152602001600282015481526020016003820160009054906101000a900460ff16600581111561086957610869611828565b600581111561087a5761087a611828565b8152505081526020019060010190610804565b50505050905060005b6108a1600184611c0a565b8110156109aa5760006108b5826001611c50565b90505b8381101561099757600282815481106108d3576108d3611c21565b906000526020600020906004020160020154600282815481106108f8576108f8611c21565b906000526020600020906004020160020154111561098557600083838151811061092457610924611c21565b6020026020010151905083828151811061094057610940611c21565b602002602001015184848151811061095a5761095a611c21565b60200260200101819052508084838151811061097857610978611c21565b6020026020010181905250505b8061098f81611c37565b9150506108b8565b50806109a281611c37565b915050610896565b5060008267ffffffffffffffff8111156109c6576109c6611bde565b6040519080825280602002602001820160405280156109ff57816020015b6109ec611762565b8152602001906001900390816109e45790505b50905060005b83811015610ac05760028181548110610a2057610a20611c21565b90600052602060002090600402016040518060800160405290816000820154815260200160018201548152602001600282015481526020016003820160009054906101000a900460ff166005811115610a7b57610a7b611828565b6005811115610a8c57610a8c611828565b81525050828281518110610aa257610aa2611c21565b60200260200101819052508080610ab890611c37565b915050610a05565b50949350505050565b60035460609060009067ffffffffffffffff811115610aea57610aea611bde565b604051908082528060200260200182016040528015610b4757816020015b610b34604080516080810190915260008082526020820190815260200160008152602001600081525090565b815260200190600190039081610b085790505b50905060005b600354811015610c23576001600060038381548110610b6e57610b6e611c21565b60009182526020808320909101546001600160a01b0390811684528382019490945260409283019091208251608081019093528054938416835291929083019060ff600160a01b909104166005811115610bca57610bca611828565b6005811115610bdb57610bdb611828565b815260200160018201548152602001600282015481525050828281518110610c0557610c05611c21565b60200260200101819052508080610c1b90611c37565b915050610b4d565b50919050565b6001826005811115610c3d57610c3d611828565b10158015610c5d57506003826005811115610c5a57610c5a611828565b11155b610c985760405162461bcd60e51b815260206004820152600c60248201526b496e76616c6964206d6f766560a01b60448201526064016102f7565b43811115610cdf5760405162461bcd60e51b8152602060048201526014602482015273125b9d985b1a5908189b1bd8dac81a195a59da1d60621b60448201526064016102f7565b336000908152600160208190526040822090810154909103610d3e57600380546001810182556000919091527fc2575a0e9e593c00f959f8c92f12db2869c3395a3b0502d05e2516446f71f85b0180546001600160a01b031916331790555b60018101541580610d525750818160020154105b15610d6f5780546001600160a01b03191633178155600281018290555b80548390829060ff60a01b1916600160a01b836005811115610d9357610d93611828565b0217905550600181018054906000610daa83611c37565b9190505550610db882610dbd565b505050565b60008060008060038054905067ffffffffffffffff811115610de157610de1611bde565b604051908082528060200260200182016040528015610e0a578160200160208202803683370190505b5060035490915060009067ffffffffffffffff811115610e2c57610e2c611bde565b604051908082528060200260200182016040528015610e55578160200160208202803683370190505b5060035490915060009067ffffffffffffffff811115610e7757610e77611bde565b604051908082528060200260200182016040528015610ea0578160200160208202803683370190505b50905060005b6003548110156110775760006001600060038481548110610ec957610ec9611c21565b60009182526020808320909101546001600160a01b0390811684528382019490945260409283019091208251608081019093528054938416835291929083019060ff600160a01b909104166005811115610f2557610f25611828565b6005811115610f3657610f36611828565b81526020016001820154815260200160028201548152505090508881606001510361106457600181602001516005811115610f7357610f73611828565b03610fc15787610f8281611c37565b9850508060000151858381518110610f9c57610f9c611c21565b60200260200101906001600160a01b031690816001600160a01b031681525050611064565b600281602001516005811115610fd957610fd9611828565b036110025786610fe881611c37565b9750508060000151848381518110610f9c57610f9c611c21565b60038160200151600581111561101a5761101a611828565b03611064578561102981611c37565b965050806000015183838151811061104357611043611c21565b60200260200101906001600160a01b031690816001600160a01b0316815250505b508061106f81611c37565b915050610ea6565b50848611801561108657508386115b156110d7576110af876001888888888888600080600560009054906101000a900460ff16611295565b60048790556110be6001611375565b600580546001919060ff191682805b021790555061128c565b85851180156110e557508385115b156111315761110e876002888888888888600080600560009054906101000a900460ff16611295565b600487905561111d6002611375565b600580546002919060ff19166001836110cd565b858411801561113f57508484115b1561118b57611168876003888888888888600080600560009054906101000a900460ff16611295565b60048790556111776003611375565b600580546003919060ff19166001836110cd565b848614801561119957508386115b156111c8576111c387600488888888888860016000600560009054906101000a900460ff16611295565b61128c565b83861480156111d657508486115b15611200576111c387600488888888888860016000600560009054906101000a900460ff16611295565b838514801561120e57508585115b15611238576111c387600488888888888860016000600560009054906101000a900460ff16611295565b848614801561124657508386145b15611270576111c387600488888888888860016000600560009054906101000a900460ff16611295565b60055461128c90889060ff168888888888886000600188611295565b50505050505050565b60008b81526020819052604090208b8155600180820180548d9260ff19909116908360058111156112c8576112c8611828565b0217905550600281018a9055600381018990556004810188905586516112f790600583019060208a0190611795565b50855161130d9060068301906020890190611795565b5084516113239060078301906020880190611795565b5060088101805461ffff191685151561ff00191617610100851515021780825583919062ff000019166201000083600581111561136257611362611828565b0217905550505050505050505050505050565b60025460000361149e576000604051806080016040528060045481526020016004548152602001600181526020018360058111156113b5576113b5611828565b9052600280546001808201835560009290925282517f405787fa12a823e0f2b7631cc41b3ba8828b3321ca811111fa75cd3aa3bb5ace600490920291820190815560208401517f405787fa12a823e0f2b7631cc41b3ba8828b3321ca811111fa75cd3aa3bb5acf83015560408401517f405787fa12a823e0f2b7631cc41b3ba8828b3321ca811111fa75cd3aa3bb5ad083015560608401517f405787fa12a823e0f2b7631cc41b3ba8828b3321ca811111fa75cd3aa3bb5ad1909201805494955085949193909160ff19169083600581111561149357611493611828565b021790555050505050565b60028054600091906114b290600190611c0a565b815481106114c2576114c2611c21565b60009182526020909120600490910201905060018260058111156114e8576114e8611828565b14801561150b575060036005805460ff169081111561150957611509611828565b145b806115485750600282600581111561152557611525611828565b148015611548575060016005805460ff169081111561154657611546611828565b145b806115855750600382600581111561156257611562611828565b148015611585575060026005805460ff169081111561158357611583611828565b145b156115d35760045460018201556002810180549060006115a483611c37565b909155505060038101805483919060ff191660018360058111156115ca576115ca611828565b02179055505050565b60006040518060800160405280600454815260200160045481526020016000815260200184600581111561160957611609611828565b9052600280546001808201835560009290925282517f405787fa12a823e0f2b7631cc41b3ba8828b3321ca811111fa75cd3aa3bb5ace600490920291820190815560208401517f405787fa12a823e0f2b7631cc41b3ba8828b3321ca811111fa75cd3aa3bb5acf83015560408401517f405787fa12a823e0f2b7631cc41b3ba8828b3321ca811111fa75cd3aa3bb5ad083015560608401517f405787fa12a823e0f2b7631cc41b3ba8828b3321ca811111fa75cd3aa3bb5ad1909201805494955085949193909160ff1916908360058111156116e7576116e7611828565b02179055505050505050565b6040805161016081019091526000808252602082019081526020016000815260200160008152602001600081526020016060815260200160608152602001606081526020016000151581526020016000151581526020016000600581111561175d5761175d611828565b905290565b60405180608001604052806000815260200160008152602001600081526020016000600581111561175d5761175d611828565b8280548282559060005260206000209081019282156117ea579160200282015b828111156117ea57825182546001600160a01b0319166001600160a01b039091161782556020909201916001909101906117b5565b506117f69291506117fa565b5090565b5b808211156117f657600081556001016117fb565b60006020828403121561182157600080fd5b5035919050565b634e487b7160e01b600052602160045260246000fd5b6006811061185c57634e487b7160e01b600052602160045260246000fd5b9052565b8881526101008101611875602083018a61183e565b87604083015286606083015285608083015284151560a083015283151560c08301526118a460e083018461183e565b9998505050505050505050565b600081518084526020808501945080840160005b838110156118ea5781516001600160a01b0316875295820195908201906001016118c5565b509495945050505050565b60006020808301818452808551808352604092508286019150828160051b87010184880160005b83811015611a0057603f19898403018552815161016081518552888201516119468a87018261183e565b508188015185890152606080830151908601526080808301519086015260a08083015181870183905261197b838801826118b1565b9250505060c0808301518683038288015261199683826118b1565b9250505060e080830151868303828801526119b183826118b1565b92505050610100808301516119c98288018215159052565b50506101208281015115159086015261014091820151916119ec8187018461183e565b50958801959350509086019060010161191c565b509098975050505050505050565b600060208284031215611a2057600080fd5b81356001600160a01b0381168114611a3757600080fd5b9392505050565b80516001600160a01b0316825260208082015190611a5e9084018261183e565b5060408181015190830152606090810151910152565b60808101611a828284611a3e565b92915050565b848152602081018490526040810183905260808101611aaa606083018461183e565b95945050505050565b602080825282518282018190526000919060409081850190868401855b82811015611b16578151805185528681015187860152858101518686015260609081015190611b018187018361183e565b50506080939093019290850190600101611ad0565b5091979650505050505050565b6001600160a01b038516815260808101611b40602083018661183e565b60408201939093526060015292915050565b60208101611a82828461183e565b6020808252825182820181905260009190848201906040850190845b81811015611ba257611b8f838551611a3e565b9284019260809290920191600101611b7c565b50909695505050505050565b60008060408385031215611bc157600080fd5b823560068110611bd057600080fd5b946020939093013593505050565b634e487b7160e01b600052604160045260246000fd5b634e487b7160e01b600052601160045260246000fd5b600082821015611c1c57611c1c611bf4565b500390565b634e487b7160e01b600052603260045260246000fd5b600060018201611c4957611c49611bf4565b5060010190565b60008219821115611c6357611c63611bf4565b50019056fea264697066735822122061f69a032e3ac72c5fe18834382d5854d207e9aa31fba4a6a27f3c1462b8cdcf64736f6c634300080d0033",
    "linkReferences": {}
  },
  "methodIdentifiers": {
    "allUsers(uint256)": "a2bdedf4",
    "blockResults(uint256)": "0888d514",
    "castVote(uint8,uint256)": "f9135be9",
    "getAllStreaks()": "75f61f19",
    "getAllUsers()": "e2842d79",
    "getResultsOfPreviousBlocks(uint256)": "2465170b",
    "getTopStreaks(uint256)": "d8c8ec5e",
    "getUserByAddress(address)": "69c212f6",
    "lastWinningMove()": "d464d60d",
    "lastWinningMoveBlockHeight()": "a356f9e4",
    "users(address)": "a87430ba",
    "winningStreaks(uint256)": "73a6a35b"
  },
  "id": 0
}